{
  "contractName": "Roles",
  "abi": [
    {
      "inputs": [],
      "payable": false,
      "stateMutability": "nonpayable",
      "type": "constructor"
    },
    {
      "anonymous": false,
      "inputs": [
        {
          "indexed": true,
          "internalType": "address",
          "name": "oldAdmin",
          "type": "address"
        },
        {
          "indexed": true,
          "internalType": "address",
          "name": "newAdmin",
          "type": "address"
        }
      ],
      "name": "AdminTransferred",
      "type": "event"
    },
    {
      "anonymous": false,
      "inputs": [
        {
          "indexed": true,
          "internalType": "address",
          "name": "user",
          "type": "address"
        },
        {
          "indexed": false,
          "internalType": "enum Roles.Role",
          "name": "role",
          "type": "uint8"
        },
        {
          "indexed": false,
          "internalType": "string",
          "name": "action",
          "type": "string"
        }
      ],
      "name": "RoleActionPerformed",
      "type": "event"
    },
    {
      "anonymous": false,
      "inputs": [
        {
          "indexed": true,
          "internalType": "address",
          "name": "user",
          "type": "address"
        },
        {
          "indexed": false,
          "internalType": "enum Roles.Role",
          "name": "role",
          "type": "uint8"
        },
        {
          "indexed": false,
          "internalType": "string",
          "name": "description",
          "type": "string"
        }
      ],
      "name": "RoleAssigned",
      "type": "event"
    },
    {
      "anonymous": false,
      "inputs": [
        {
          "indexed": true,
          "internalType": "address",
          "name": "user",
          "type": "address"
        },
        {
          "indexed": false,
          "internalType": "enum Roles.Role",
          "name": "role",
          "type": "uint8"
        },
        {
          "indexed": false,
          "internalType": "string",
          "name": "description",
          "type": "string"
        }
      ],
      "name": "RoleRevoked",
      "type": "event"
    },
    {
      "constant": true,
      "inputs": [],
      "name": "admin",
      "outputs": [
        {
          "internalType": "address",
          "name": "",
          "type": "address"
        }
      ],
      "payable": false,
      "stateMutability": "view",
      "type": "function"
    },
    {
      "constant": true,
      "inputs": [
        {
          "internalType": "uint256",
          "name": "",
          "type": "uint256"
        }
      ],
      "name": "roleDescriptions",
      "outputs": [
        {
          "internalType": "string",
          "name": "",
          "type": "string"
        }
      ],
      "payable": false,
      "stateMutability": "view",
      "type": "function"
    },
    {
      "constant": true,
      "inputs": [
        {
          "internalType": "address",
          "name": "",
          "type": "address"
        }
      ],
      "name": "userRoles",
      "outputs": [
        {
          "internalType": "enum Roles.Role",
          "name": "",
          "type": "uint8"
        }
      ],
      "payable": false,
      "stateMutability": "view",
      "type": "function"
    },
    {
      "constant": false,
      "inputs": [
        {
          "internalType": "address",
          "name": "_user",
          "type": "address"
        },
        {
          "internalType": "enum Roles.Role",
          "name": "_role",
          "type": "uint8"
        }
      ],
      "name": "assignRole",
      "outputs": [],
      "payable": false,
      "stateMutability": "nonpayable",
      "type": "function"
    },
    {
      "constant": false,
      "inputs": [
        {
          "internalType": "address",
          "name": "_user",
          "type": "address"
        }
      ],
      "name": "revokeRole",
      "outputs": [],
      "payable": false,
      "stateMutability": "nonpayable",
      "type": "function"
    },
    {
      "constant": false,
      "inputs": [
        {
          "internalType": "address",
          "name": "_newAdmin",
          "type": "address"
        }
      ],
      "name": "transferAdmin",
      "outputs": [],
      "payable": false,
      "stateMutability": "nonpayable",
      "type": "function"
    },
    {
      "constant": true,
      "inputs": [
        {
          "internalType": "address",
          "name": "_user",
          "type": "address"
        },
        {
          "internalType": "enum Roles.Role",
          "name": "_role",
          "type": "uint8"
        }
      ],
      "name": "hasRole",
      "outputs": [
        {
          "internalType": "bool",
          "name": "",
          "type": "bool"
        }
      ],
      "payable": false,
      "stateMutability": "view",
      "type": "function"
    },
    {
      "constant": true,
      "inputs": [
        {
          "internalType": "address",
          "name": "_user",
          "type": "address"
        }
      ],
      "name": "getUserRole",
      "outputs": [
        {
          "internalType": "enum Roles.Role",
          "name": "",
          "type": "uint8"
        }
      ],
      "payable": false,
      "stateMutability": "view",
      "type": "function"
    },
    {
      "constant": true,
      "inputs": [
        {
          "internalType": "enum Roles.Role",
          "name": "_role",
          "type": "uint8"
        }
      ],
      "name": "getRoleDescription",
      "outputs": [
        {
          "internalType": "string",
          "name": "",
          "type": "string"
        }
      ],
      "payable": false,
      "stateMutability": "view",
      "type": "function"
    },
    {
      "constant": false,
      "inputs": [],
      "name": "supplierAction",
      "outputs": [],
      "payable": false,
      "stateMutability": "nonpayable",
      "type": "function"
    },
    {
      "constant": false,
      "inputs": [],
      "name": "manufacturerAction",
      "outputs": [],
      "payable": false,
      "stateMutability": "nonpayable",
      "type": "function"
    },
    {
      "constant": false,
      "inputs": [],
      "name": "distributorAction",
      "outputs": [],
      "payable": false,
      "stateMutability": "nonpayable",
      "type": "function"
    },
    {
      "constant": false,
      "inputs": [],
      "name": "retailerAction",
      "outputs": [],
      "payable": false,
      "stateMutability": "nonpayable",
      "type": "function"
    },
    {
      "constant": false,
      "inputs": [],
      "name": "consumerAction",
      "outputs": [],
      "payable": false,
      "stateMutability": "nonpayable",
      "type": "function"
    }
  ],
  "bytecode": "0x60806040523480156200001157600080fd5b50336000806101000a81548173ffffffffffffffffffffffffffffffffffffffff021916908373ffffffffffffffffffffffffffffffffffffffff1602179055506040518060400160405280601081526020017f4e6f20526f6c652041737369676e656400000000000000000000000000000000815250600260008060058111156200009957fe5b81526020019081526020016000209080519060200190620000bc929190620002de565b506040518060400160405280601581526020017f526177204d6174657269616c20537570706c696572000000000000000000000081525060026000600160058111156200010557fe5b8152602001908152602001600020908051906020019062000128929190620002de565b506040518060400160405280600c81526020017f4d616e756661637475726572000000000000000000000000000000000000000081525060026000600260058111156200017157fe5b8152602001908152602001600020908051906020019062000194929190620002de565b506040518060400160405280600b81526020017f4469737472696275746f720000000000000000000000000000000000000000008152506002600060036005811115620001dd57fe5b8152602001908152602001600020908051906020019062000200929190620002de565b506040518060400160405280600881526020017f52657461696c657200000000000000000000000000000000000000000000000081525060026000600460058111156200024957fe5b815260200190815260200160002090805190602001906200026c929190620002de565b506040518060400160405280600881526020017f436f6e73756d657200000000000000000000000000000000000000000000000081525060026000600580811115620002b457fe5b81526020019081526020016000209080519060200190620002d7929190620002de565b506200038d565b828054600181600116156101000203166002900490600052602060002090601f016020900481019282601f106200032157805160ff191683800117855562000352565b8280016001018555821562000352579182015b828111156200035157825182559160200191906001019062000334565b5b50905062000361919062000365565b5090565b6200038a91905b80821115620003865760008160009055506001016200036c565b5090565b90565b6117ac806200039d6000396000f3fe608060405234801561001057600080fd5b50600436106100ea5760003560e01c806375829def1161008c57806395a8c58d1161006657806395a8c58d14610403578063b8adb6291461046c578063c61fbebd14610476578063f851a44014610480576100ea565b806375829def146103715780637cfc455c146103b557806380e52e3f146103bf576100ea565b806330c2d3e6116100c857806330c2d3e61461020657806354bf5731146102b0578063630a195b146102ba57806374d5e1001461030b576100ea565b80631385be65146100ef5780631791fdd11461019657806327820851146101a0575b600080fd5b61011b6004803603602081101561010557600080fd5b81019080803590602001909291905050506104ca565b6040518080602001828103825283818151815260200191508051906020019080838360005b8381101561015b578082015181840152602081019050610140565b50505050905090810190601f1680156101885780820380516001836020036101000a031916815260200191505b509250505060405180910390f35b61019e61057a565b005b6101e2600480360360208110156101b657600080fd5b81019080803573ffffffffffffffffffffffffffffffffffffffff1690602001909291905050506106cd565b604051808260058111156101f257fe5b60ff16815260200191505060405180910390f35b6102356004803603602081101561021c57600080fd5b81019080803560ff169060200190929190505050610723565b6040518080602001828103825283818151815260200191508051906020019080838360005b8381101561027557808201518184015260208101905061025a565b50505050905090810190601f1680156102a25780820380516001836020036101000a031916815260200191505b509250505060405180910390f35b6102b86107e3565b005b610309600480360360408110156102d057600080fd5b81019080803573ffffffffffffffffffffffffffffffffffffffff169060200190929190803560ff169060200190929190505050610936565b005b61034d6004803603602081101561032157600080fd5b81019080803573ffffffffffffffffffffffffffffffffffffffff169060200190929190505050610ca7565b6040518082600581111561035d57fe5b60ff16815260200191505060405180910390f35b6103b36004803603602081101561038757600080fd5b81019080803573ffffffffffffffffffffffffffffffffffffffff169060200190929190505050610cc7565b005b6103bd610ecd565b005b610401600480360360208110156103d557600080fd5b81019080803573ffffffffffffffffffffffffffffffffffffffff169060200190929190505050611020565b005b6104526004803603604081101561041957600080fd5b81019080803573ffffffffffffffffffffffffffffffffffffffff169060200190929190803560ff169060200190929190505050611357565b604051808215151515815260200191505060405180910390f35b6104746113c6565b005b61047e611519565b005b61048861166b565b604051808273ffffffffffffffffffffffffffffffffffffffff1673ffffffffffffffffffffffffffffffffffffffff16815260200191505060405180910390f35b60026020528060005260406000206000915090508054600181600116156101000203166002900480601f0160208091040260200160405190810160405280929190818152602001828054600181600116156101000203166002900480156105725780601f1061054757610100808354040283529160200191610572565b820191906000526020600020905b81548152906001019060200180831161055557829003601f168201915b505050505081565b6002600581111561058757fe5b600160003373ffffffffffffffffffffffffffffffffffffffff1673ffffffffffffffffffffffffffffffffffffffff16815260200190815260200160002060009054906101000a900460ff1660058111156105df57fe5b14610635576040517f08c379a000000000000000000000000000000000000000000000000000000000815260040180806020018281038252602a8152602001806116b7602a913960400191505060405180910390fd5b3373ffffffffffffffffffffffffffffffffffffffff167fa91f1eb8f7af79f3b113d175e735894235716f9dcc4e5eb4178b396713df3f5c60026040518082600581111561067f57fe5b60ff168152602001806020018281038252601d8152602001807f4d616e75666163747572657220416374696f6e20506572666f726d65640000008152506020019250505060405180910390a2565b6000600160008373ffffffffffffffffffffffffffffffffffffffff1673ffffffffffffffffffffffffffffffffffffffff16815260200190815260200160002060009054906101000a900460ff169050919050565b60606002600083600581111561073557fe5b81526020019081526020016000208054600181600116156101000203166002900480601f0160208091040260200160405190810160405280929190818152602001828054600181600116156101000203166002900480156107d75780601f106107ac576101008083540402835291602001916107d7565b820191906000526020600020905b8154815290600101906020018083116107ba57829003601f168201915b50505050509050919050565b600360058111156107f057fe5b600160003373ffffffffffffffffffffffffffffffffffffffff1673ffffffffffffffffffffffffffffffffffffffff16815260200190815260200160002060009054906101000a900460ff16600581111561084857fe5b1461089e576040517f08c379a000000000000000000000000000000000000000000000000000000000815260040180806020018281038252602981526020018061174f6029913960400191505060405180910390fd5b3373ffffffffffffffffffffffffffffffffffffffff167fa91f1eb8f7af79f3b113d175e735894235716f9dcc4e5eb4178b396713df3f5c6003604051808260058111156108e857fe5b60ff168152602001806020018281038252601c8152602001807f4469737472696275746f7220416374696f6e20506572666f726d6564000000008152506020019250505060405180910390a2565b6000809054906101000a900473ffffffffffffffffffffffffffffffffffffffff1673ffffffffffffffffffffffffffffffffffffffff163373ffffffffffffffffffffffffffffffffffffffff16146109db576040517f08c379a00000000000000000000000000000000000000000000000000000000081526004018080602001828103825260228152602001806117076022913960400191505060405180910390fd5b600060058111156109e857fe5b8160058111156109f457fe5b1415610a68576040517f08c379a000000000000000000000000000000000000000000000000000000000815260040180806020018281038252600c8152602001807f496e76616c696420726f6c65000000000000000000000000000000000000000081525060200191505060405180910390fd5b60006005811115610a7557fe5b600160008473ffffffffffffffffffffffffffffffffffffffff1673ffffffffffffffffffffffffffffffffffffffff16815260200190815260200160002060009054906101000a900460ff166005811115610acd57fe5b14610b40576040517f08c379a00000000000000000000000000000000000000000000000000000000081526004018080602001828103825260178152602001807f5573657220616c726561647920686173206120726f6c6500000000000000000081525060200191505060405180910390fd5b80600160008473ffffffffffffffffffffffffffffffffffffffff1673ffffffffffffffffffffffffffffffffffffffff16815260200190815260200160002060006101000a81548160ff02191690836005811115610b9b57fe5b02179055508173ffffffffffffffffffffffffffffffffffffffff167f6f9e8382effc1f2659a04b480fc00e03e9ea704a05c90d74db22a5fb12ee46af8260026000856005811115610be957fe5b815260200190815260200160002060405180836005811115610c0757fe5b60ff16815260200180602001828103825283818154600181600116156101000203166002900481526020019150805460018160011615610100020316600290048015610c945780601f10610c6957610100808354040283529160200191610c94565b820191906000526020600020905b815481529060010190602001808311610c7757829003601f168201915b5050935050505060405180910390a25050565b60016020528060005260406000206000915054906101000a900460ff1681565b6000809054906101000a900473ffffffffffffffffffffffffffffffffffffffff1673ffffffffffffffffffffffffffffffffffffffff163373ffffffffffffffffffffffffffffffffffffffff1614610d6c576040517f08c379a00000000000000000000000000000000000000000000000000000000081526004018080602001828103825260228152602001806117076022913960400191505060405180910390fd5b600073ffffffffffffffffffffffffffffffffffffffff168173ffffffffffffffffffffffffffffffffffffffff161415610e0f576040517f08c379a000000000000000000000000000000000000000000000000000000000815260040180806020018281038252601d8152602001807f496e76616c6964206164647265737320666f72206e65772061646d696e00000081525060200191505060405180910390fd5b8073ffffffffffffffffffffffffffffffffffffffff166000809054906101000a900473ffffffffffffffffffffffffffffffffffffffff1673ffffffffffffffffffffffffffffffffffffffff167ff8ccb027dfcd135e000e9d45e6cc2d662578a8825d4c45b5e32e0adf67e79ec660405160405180910390a3806000806101000a81548173ffffffffffffffffffffffffffffffffffffffff021916908373ffffffffffffffffffffffffffffffffffffffff16021790555050565b60046005811115610eda57fe5b600160003373ffffffffffffffffffffffffffffffffffffffff1673ffffffffffffffffffffffffffffffffffffffff16815260200190815260200160002060009054906101000a900460ff166005811115610f3257fe5b14610f88576040517f08c379a00000000000000000000000000000000000000000000000000000000081526004018080602001828103825260268152602001806116916026913960400191505060405180910390fd5b3373ffffffffffffffffffffffffffffffffffffffff167fa91f1eb8f7af79f3b113d175e735894235716f9dcc4e5eb4178b396713df3f5c600460405180826005811115610fd257fe5b60ff16815260200180602001828103825260198152602001807f52657461696c657220416374696f6e20506572666f726d6564000000000000008152506020019250505060405180910390a2565b6000809054906101000a900473ffffffffffffffffffffffffffffffffffffffff1673ffffffffffffffffffffffffffffffffffffffff163373ffffffffffffffffffffffffffffffffffffffff16146110c5576040517f08c379a00000000000000000000000000000000000000000000000000000000081526004018080602001828103825260228152602001806117076022913960400191505060405180910390fd5b600060058111156110d257fe5b600160008373ffffffffffffffffffffffffffffffffffffffff1673ffffffffffffffffffffffffffffffffffffffff16815260200190815260200160002060009054906101000a900460ff16600581111561112a57fe5b141561119e576040517f08c379a00000000000000000000000000000000000000000000000000000000081526004018080602001828103825260198152602001807f5573657220686173206e6f20726f6c652061737369676e65640000000000000081525060200191505060405180910390fd5b6000600160008373ffffffffffffffffffffffffffffffffffffffff1673ffffffffffffffffffffffffffffffffffffffff16815260200190815260200160002060009054906101000a900460ff1690506000600160008473ffffffffffffffffffffffffffffffffffffffff1673ffffffffffffffffffffffffffffffffffffffff16815260200190815260200160002060006101000a81548160ff0219169083600581111561124b57fe5b02179055508173ffffffffffffffffffffffffffffffffffffffff167f285c4fb5c4d71e57b223e637eb34c928bbd52dc4435f3afeead12e99343c967a826002600085600581111561129957fe5b8152602001908152602001600020604051808360058111156112b757fe5b60ff168152602001806020018281038252838181546001816001161561010002031660029004815260200191508054600181600116156101000203166002900480156113445780601f1061131957610100808354040283529160200191611344565b820191906000526020600020905b81548152906001019060200180831161132757829003601f168201915b5050935050505060405180910390a25050565b600081600581111561136557fe5b600160008573ffffffffffffffffffffffffffffffffffffffff1673ffffffffffffffffffffffffffffffffffffffff16815260200190815260200160002060009054906101000a900460ff1660058111156113bd57fe5b14905092915050565b600160058111156113d357fe5b600160003373ffffffffffffffffffffffffffffffffffffffff1673ffffffffffffffffffffffffffffffffffffffff16815260200190815260200160002060009054906101000a900460ff16600581111561142b57fe5b14611481576040517f08c379a00000000000000000000000000000000000000000000000000000000081526004018080602001828103825260268152602001806117296026913960400191505060405180910390fd5b3373ffffffffffffffffffffffffffffffffffffffff167fa91f1eb8f7af79f3b113d175e735894235716f9dcc4e5eb4178b396713df3f5c6001604051808260058111156114cb57fe5b60ff16815260200180602001828103825260198152602001807f537570706c69657220416374696f6e20506572666f726d6564000000000000008152506020019250505060405180910390a2565b60058081111561152557fe5b600160003373ffffffffffffffffffffffffffffffffffffffff1673ffffffffffffffffffffffffffffffffffffffff16815260200190815260200160002060009054906101000a900460ff16600581111561157d57fe5b146115d3576040517f08c379a00000000000000000000000000000000000000000000000000000000081526004018080602001828103825260268152602001806116e16026913960400191505060405180910390fd5b3373ffffffffffffffffffffffffffffffffffffffff167fa91f1eb8f7af79f3b113d175e735894235716f9dcc4e5eb4178b396713df3f5c60056040518082600581111561161d57fe5b60ff16815260200180602001828103825260198152602001807f436f6e73756d657220416374696f6e20506572666f726d6564000000000000008152506020019250505060405180910390a2565b6000809054906101000a900473ffffffffffffffffffffffffffffffffffffffff168156fe4f6e6c792072657461696c6572732063616e20706572666f726d207468697320616374696f6e4f6e6c79206d616e756661637475726572732063616e20706572666f726d207468697320616374696f6e4f6e6c7920636f6e73756d6572732063616e20706572666f726d207468697320616374696f6e4f6e6c792061646d696e2063616e20706572666f726d207468697320616374696f6e4f6e6c7920737570706c696572732063616e20706572666f726d207468697320616374696f6e4f6e6c79206469737472696275746f72732063616e20706572666f726d207468697320616374696f6ea265627a7a723158203a0a8c3cb1a2203b811e1fc7d8d5d8b8033fb6da79eac8402de9caf703faa28264736f6c63430005100032",
  "source": "// SPDX-License-Identifier: MIT\r\npragma solidity >=0.4.22 <0.9.0;\r\n\r\ncontract Roles {\r\n    address public admin;\r\n\r\n    enum Role { None, Supplier, Manufacturer, Distributor, Retailer, Consumer }\r\n    mapping(address => Role) public userRoles;\r\n    mapping(uint256 => string) public roleDescriptions; // Use uint256 instead of Role\r\n\r\n    event RoleAssigned(address indexed user, Role role, string description);\r\n    event RoleRevoked(address indexed user, Role role, string description);\r\n    event AdminTransferred(address indexed oldAdmin, address indexed newAdmin);\r\n    event RoleActionPerformed(address indexed user, Role role, string action);\r\n\r\n    modifier onlyAdmin() {\r\n        require(msg.sender == admin, \"Only admin can perform this action\");\r\n        _;\r\n    }\r\n\r\n    modifier onlySupplier() {\r\n        require(userRoles[msg.sender] == Role.Supplier, \"Only suppliers can perform this action\");\r\n        _;\r\n    }\r\n\r\n    modifier onlyManufacturer() {\r\n        require(userRoles[msg.sender] == Role.Manufacturer, \"Only manufacturers can perform this action\");\r\n        _;\r\n    }\r\n\r\n    modifier onlyDistributor() {\r\n        require(userRoles[msg.sender] == Role.Distributor, \"Only distributors can perform this action\");\r\n        _;\r\n    }\r\n\r\n    modifier onlyRetailer() {\r\n        require(userRoles[msg.sender] == Role.Retailer, \"Only retailers can perform this action\");\r\n        _;\r\n    }\r\n\r\n    modifier onlyConsumer() {\r\n        require(userRoles[msg.sender] == Role.Consumer, \"Only consumers can perform this action\");\r\n        _;\r\n    }\r\n\r\n    constructor() public {\r\n        admin = msg.sender;\r\n\r\n        // Initialize role descriptions\r\n        roleDescriptions[uint256(Role.None)] = \"No Role Assigned\";\r\n        roleDescriptions[uint256(Role.Supplier)] = \"Raw Material Supplier\";\r\n        roleDescriptions[uint256(Role.Manufacturer)] = \"Manufacturer\";\r\n        roleDescriptions[uint256(Role.Distributor)] = \"Distributor\";\r\n        roleDescriptions[uint256(Role.Retailer)] = \"Retailer\";\r\n        roleDescriptions[uint256(Role.Consumer)] = \"Consumer\";\r\n    }\r\n\r\n    // Assign a role to a user\r\n    function assignRole(address _user, Role _role) public onlyAdmin {\r\n        require(_role != Role.None, \"Invalid role\");\r\n        require(userRoles[_user] == Role.None, \"User already has a role\");\r\n\r\n        userRoles[_user] = _role;\r\n        emit RoleAssigned(_user, _role, roleDescriptions[uint256(_role)]);\r\n    }\r\n\r\n    // Revoke a user's role\r\n    function revokeRole(address _user) public onlyAdmin {\r\n        require(userRoles[_user] != Role.None, \"User has no role assigned\");\r\n\r\n        Role revokedRole = userRoles[_user];\r\n        userRoles[_user] = Role.None;\r\n        emit RoleRevoked(_user, revokedRole, roleDescriptions[uint256(revokedRole)]);\r\n    }\r\n\r\n    // Transfer admin privileges to another user\r\n    function transferAdmin(address _newAdmin) public onlyAdmin {\r\n        require(_newAdmin != address(0), \"Invalid address for new admin\");\r\n        emit AdminTransferred(admin, _newAdmin);\r\n        admin = _newAdmin;\r\n    }\r\n\r\n    // Utility function to check if a user has a specific role\r\n    function hasRole(address _user, Role _role) public view returns (bool) {\r\n        return userRoles[_user] == _role;\r\n    }\r\n\r\n    // Get the role of a user\r\n    function getUserRole(address _user) public view returns (Role) {\r\n        return userRoles[_user];\r\n    }\r\n\r\n    // Get the description of a role\r\n    function getRoleDescription(Role _role) public view returns (string memory) {\r\n        return roleDescriptions[uint256(_role)];\r\n    }\r\n\r\n    // Example: Function restricted to suppliers\r\n    function supplierAction() public onlySupplier {\r\n        emit RoleActionPerformed(msg.sender, Role.Supplier, \"Supplier Action Performed\");\r\n        // Logic for suppliers\r\n    }\r\n\r\n    // Example: Function restricted to manufacturers\r\n    function manufacturerAction() public onlyManufacturer {\r\n        emit RoleActionPerformed(msg.sender, Role.Manufacturer, \"Manufacturer Action Performed\");\r\n        // Logic for manufacturers\r\n    }\r\n\r\n    // Example: Function restricted to distributors\r\n    function distributorAction() public onlyDistributor {\r\n        emit RoleActionPerformed(msg.sender, Role.Distributor, \"Distributor Action Performed\");\r\n        // Logic for distributors\r\n    }\r\n\r\n    // Example: Function restricted to retailers\r\n    function retailerAction() public onlyRetailer {\r\n        emit RoleActionPerformed(msg.sender, Role.Retailer, \"Retailer Action Performed\");\r\n        // Logic for retailers\r\n    }\r\n\r\n    // Example: Function restricted to consumers\r\n    function consumerAction() public onlyConsumer {\r\n        emit RoleActionPerformed(msg.sender, Role.Consumer, \"Consumer Action Performed\");\r\n        // Logic for consumers\r\n    }\r\n}",
  "sourcePath": "C:\\Users\\Sharma\\Desktop\\New folder\\Coffee Supply Chain\\New Supply Chain Blockchain\\contracts\\Roles.sol",
  "compiler": {
    "name": "solc",
    "version": "0.5.16+commit.9c3226ce.Emscripten.clang"
  },
  "schemaVersion": "3.4.16",
  "updatedAt": "2025-03-21T13:43:45.629Z",
  "devdoc": {
    "methods": {}
  },
  "userdoc": {
    "methods": {}
  }
}