{
  "contractName": "Roles",
  "abi": [
    {
      "inputs": [],
      "stateMutability": "nonpayable",
      "type": "constructor"
    },
    {
      "anonymous": false,
      "inputs": [
        {
          "indexed": true,
          "internalType": "address",
          "name": "oldAdmin",
          "type": "address"
        },
        {
          "indexed": true,
          "internalType": "address",
          "name": "newAdmin",
          "type": "address"
        }
      ],
      "name": "AdminTransferred",
      "type": "event"
    },
    {
      "anonymous": false,
      "inputs": [
        {
          "indexed": true,
          "internalType": "address",
          "name": "user",
          "type": "address"
        },
        {
          "indexed": false,
          "internalType": "enum Roles.Role",
          "name": "role",
          "type": "uint8"
        },
        {
          "indexed": false,
          "internalType": "string",
          "name": "action",
          "type": "string"
        }
      ],
      "name": "RoleActionPerformed",
      "type": "event"
    },
    {
      "anonymous": false,
      "inputs": [
        {
          "indexed": true,
          "internalType": "address",
          "name": "user",
          "type": "address"
        },
        {
          "indexed": false,
          "internalType": "enum Roles.Role",
          "name": "role",
          "type": "uint8"
        },
        {
          "indexed": false,
          "internalType": "string",
          "name": "description",
          "type": "string"
        }
      ],
      "name": "RoleAssigned",
      "type": "event"
    },
    {
      "anonymous": false,
      "inputs": [
        {
          "indexed": true,
          "internalType": "address",
          "name": "user",
          "type": "address"
        },
        {
          "indexed": false,
          "internalType": "enum Roles.Role",
          "name": "role",
          "type": "uint8"
        },
        {
          "indexed": false,
          "internalType": "string",
          "name": "description",
          "type": "string"
        }
      ],
      "name": "RoleRevoked",
      "type": "event"
    },
    {
      "inputs": [],
      "name": "admin",
      "outputs": [
        {
          "internalType": "address",
          "name": "",
          "type": "address"
        }
      ],
      "stateMutability": "view",
      "type": "function"
    },
    {
      "inputs": [
        {
          "internalType": "uint256",
          "name": "",
          "type": "uint256"
        }
      ],
      "name": "roleDescriptions",
      "outputs": [
        {
          "internalType": "string",
          "name": "",
          "type": "string"
        }
      ],
      "stateMutability": "view",
      "type": "function"
    },
    {
      "inputs": [
        {
          "internalType": "address",
          "name": "",
          "type": "address"
        }
      ],
      "name": "userRoles",
      "outputs": [
        {
          "internalType": "enum Roles.Role",
          "name": "",
          "type": "uint8"
        }
      ],
      "stateMutability": "view",
      "type": "function"
    },
    {
      "inputs": [
        {
          "internalType": "address",
          "name": "_user",
          "type": "address"
        },
        {
          "internalType": "enum Roles.Role",
          "name": "_role",
          "type": "uint8"
        }
      ],
      "name": "assignRole",
      "outputs": [],
      "stateMutability": "nonpayable",
      "type": "function"
    },
    {
      "inputs": [
        {
          "internalType": "address",
          "name": "_user",
          "type": "address"
        }
      ],
      "name": "revokeRole",
      "outputs": [],
      "stateMutability": "nonpayable",
      "type": "function"
    },
    {
      "inputs": [
        {
          "internalType": "address",
          "name": "_newAdmin",
          "type": "address"
        }
      ],
      "name": "transferAdmin",
      "outputs": [],
      "stateMutability": "nonpayable",
      "type": "function"
    },
    {
      "inputs": [
        {
          "internalType": "address",
          "name": "_user",
          "type": "address"
        },
        {
          "internalType": "enum Roles.Role",
          "name": "_role",
          "type": "uint8"
        }
      ],
      "name": "hasRole",
      "outputs": [
        {
          "internalType": "bool",
          "name": "",
          "type": "bool"
        }
      ],
      "stateMutability": "view",
      "type": "function"
    },
    {
      "inputs": [
        {
          "internalType": "address",
          "name": "_user",
          "type": "address"
        }
      ],
      "name": "getUserRole",
      "outputs": [
        {
          "internalType": "enum Roles.Role",
          "name": "",
          "type": "uint8"
        }
      ],
      "stateMutability": "view",
      "type": "function"
    },
    {
      "inputs": [
        {
          "internalType": "enum Roles.Role",
          "name": "_role",
          "type": "uint8"
        }
      ],
      "name": "getRoleDescription",
      "outputs": [
        {
          "internalType": "string",
          "name": "",
          "type": "string"
        }
      ],
      "stateMutability": "view",
      "type": "function"
    },
    {
      "inputs": [],
      "name": "supplierAction",
      "outputs": [],
      "stateMutability": "nonpayable",
      "type": "function"
    },
    {
      "inputs": [],
      "name": "manufacturerAction",
      "outputs": [],
      "stateMutability": "nonpayable",
      "type": "function"
    },
    {
      "inputs": [],
      "name": "distributorAction",
      "outputs": [],
      "stateMutability": "nonpayable",
      "type": "function"
    },
    {
      "inputs": [],
      "name": "retailerAction",
      "outputs": [],
      "stateMutability": "nonpayable",
      "type": "function"
    },
    {
      "inputs": [],
      "name": "consumerAction",
      "outputs": [],
      "stateMutability": "nonpayable",
      "type": "function"
    }
  ],
  "bytecode": "0x608060405234801562000010575f80fd5b505f80546001600160a01b0319163317815560408051808201909152601081526f139bc8149bdb1948105cdcda59db995960821b60208083019190915291805260029091527fac33ff75c19e70fe83507db0d683fd3465c996598dc972688b7ace676c89077b9062000083908262000308565b5060408051808201909152601581527f526177204d6174657269616c20537570706c696572000000000000000000000060208083019190915260015f52600290527fe90b7bceb6e7df5418fb78d8ee546e97c83a08bbccc01a0644d599ccd2a7c2e090620000f2908262000308565b5060408051808201909152600c81526b26b0b73ab330b1ba3ab932b960a11b60208083019190915260025f81905290527f679795a0195a1b76cdebb7c51d74e058aee92919b8c3389af86ef24535e8a28c9062000150908262000308565b5060408051808201909152600b81526a2234b9ba3934b13aba37b960a91b60208083019190915260035f52600290527f88601476d11616a71c5be67555bd1dff4b1cbf21533d2669b768b61518cfe1c390620001ad908262000308565b506040805180820190915260088152672932ba30b4b632b960c11b60208083019190915260045f52600290527fee60d0579bcffd98e668647d59fec1ff86a7fb340ce572e844f234ae73a6918f9062000207908262000308565b5060408051808201909152600881526721b7b739bab6b2b960c11b60208083019190915260055f52600290527fb98b78633099fa36ed8b8680c4f8092689e1e04080eb9cbb077ca38a14d7e3849062000261908262000308565b50620003d0565b634e487b7160e01b5f52604160045260245ffd5b600181811c908216806200029157607f821691505b602082108103620002b057634e487b7160e01b5f52602260045260245ffd5b50919050565b601f82111562000303575f81815260208120601f850160051c81016020861015620002de5750805b601f850160051c820191505b81811015620002ff57828155600101620002ea565b5050505b505050565b81516001600160401b0381111562000324576200032462000268565b6200033c816200033584546200027c565b84620002b6565b602080601f83116001811462000372575f84156200035a5750858301515b5f19600386901b1c1916600185901b178555620002ff565b5f85815260208120601f198616915b82811015620003a25788860151825594840194600190910190840162000381565b5085821015620003c057878501515f19600388901b60f8161c191681555b5050505050600190811b01905550565b610eaf80620003de5f395ff3fe608060405234801561000f575f80fd5b50600436106100e5575f3560e01c806375829def1161008857806395a8c58d1161006357806395a8c58d146101d2578063b8adb629146101f5578063c61fbebd146101fd578063f851a44014610205575f80fd5b806375829def146101a45780637cfc455c146101b757806380e52e3f146101bf575f80fd5b806330c2d3e6116100c357806330c2d3e61461015457806354bf573114610167578063630a195b1461016f57806374d5e10014610182575f80fd5b80631385be65146100e95780631791fdd114610112578063278208511461011c575b5f80fd5b6100fc6100f7366004610a8d565b61022f565b6040516101099190610aa4565b60405180910390f35b61011a6102c6565b005b61014761012a366004610b0a565b6001600160a01b03165f9081526001602052604090205460ff1690565b6040516101099190610b5e565b6100fc610162366004610b7a565b610381565b61011a610433565b61011a61017d366004610b93565b6104de565b610147610190366004610b0a565b60016020525f908152604090205460ff1681565b61011a6101b2366004610b0a565b610673565b61011a61074b565b61011a6101cd366004610b0a565b6107f3565b6101e56101e0366004610b93565b6108f4565b6040519015158152602001610109565b61011a61093d565b61011a6109e5565b5f54610217906001600160a01b031681565b6040516001600160a01b039091168152602001610109565b60026020525f90815260409020805461024790610bc4565b80601f016020809104026020016040519081016040528092919081815260200182805461027390610bc4565b80156102be5780601f10610295576101008083540402835291602001916102be565b820191905f5260205f20905b8154815290600101906020018083116102a157829003601f168201915b505050505081565b6002335f9081526001602052604090205460ff1660058111156102eb576102eb610b2a565b146103505760405162461bcd60e51b815260206004820152602a60248201527f4f6e6c79206d616e756661637475726572732063616e20706572666f726d20746044820152693434b99030b1ba34b7b760b11b60648201526084015b60405180910390fd5b336001600160a01b03165f80516020610e5a83398151915260026040516103779190610bfc565b60405180910390a2565b606060025f83600581111561039857610398610b2a565b81526020019081526020015f2080546103b090610bc4565b80601f01602080910402602001604051908101604052809291908181526020018280546103dc90610bc4565b80156104275780601f106103fe57610100808354040283529160200191610427565b820191905f5260205f20905b81548152906001019060200180831161040a57829003601f168201915b50505050509050919050565b6003335f9081526001602052604090205460ff16600581111561045857610458610b2a565b146104b75760405162461bcd60e51b815260206004820152602960248201527f4f6e6c79206469737472696275746f72732063616e20706572666f726d20746860448201526834b99030b1ba34b7b760b91b6064820152608401610347565b336001600160a01b03165f80516020610e5a83398151915260036040516103779190610c43565b5f546001600160a01b031633146105075760405162461bcd60e51b815260040161034790610c8a565b5f81600581111561051a5761051a610b2a565b036105565760405162461bcd60e51b815260206004820152600c60248201526b496e76616c696420726f6c6560a01b6044820152606401610347565b6001600160a01b0382165f9081526001602052604081205460ff16600581111561058257610582610b2a565b146105cf5760405162461bcd60e51b815260206004820152601760248201527f5573657220616c726561647920686173206120726f6c650000000000000000006044820152606401610347565b6001600160a01b0382165f9081526001602081905260409091208054839260ff199091169083600581111561060657610606610b2a565b0217905550816001600160a01b03167f6f9e8382effc1f2659a04b480fc00e03e9ea704a05c90d74db22a5fb12ee46af8260025f85600581111561064c5761064c610b2a565b81526020019081526020015f20604051610667929190610ccc565b60405180910390a25050565b5f546001600160a01b0316331461069c5760405162461bcd60e51b815260040161034790610c8a565b6001600160a01b0381166106f25760405162461bcd60e51b815260206004820152601d60248201527f496e76616c6964206164647265737320666f72206e65772061646d696e0000006044820152606401610347565b5f80546040516001600160a01b03808516939216917ff8ccb027dfcd135e000e9d45e6cc2d662578a8825d4c45b5e32e0adf67e79ec691a35f80546001600160a01b0319166001600160a01b0392909216919091179055565b6004335f9081526001602052604090205460ff16600581111561077057610770610b2a565b146107cc5760405162461bcd60e51b815260206004820152602660248201527f4f6e6c792072657461696c6572732063616e20706572666f726d20746869732060448201526530b1ba34b7b760d11b6064820152608401610347565b336001600160a01b03165f80516020610e5a83398151915260046040516103779190610d84565b5f546001600160a01b0316331461081c5760405162461bcd60e51b815260040161034790610c8a565b6001600160a01b0381165f9081526001602052604081205460ff16600581111561084857610848610b2a565b036108955760405162461bcd60e51b815260206004820152601960248201527f5573657220686173206e6f20726f6c652061737369676e6564000000000000006044820152606401610347565b6001600160a01b0381165f818152600160205260408120805460ff19811690915560ff1691907f285c4fb5c4d71e57b223e637eb34c928bbd52dc4435f3afeead12e99343c967a90839060029082600581111561064c5761064c610b2a565b5f81600581111561090757610907610b2a565b6001600160a01b0384165f9081526001602052604090205460ff16600581111561093357610933610b2a565b1490505b92915050565b6001335f9081526001602052604090205460ff16600581111561096257610962610b2a565b146109be5760405162461bcd60e51b815260206004820152602660248201527f4f6e6c7920737570706c696572732063616e20706572666f726d20746869732060448201526530b1ba34b7b760d11b6064820152608401610347565b336001600160a01b03165f80516020610e5a83398151915260016040516103779190610dcb565b6005335f9081526001602052604090205460ff166005811115610a0a57610a0a610b2a565b14610a665760405162461bcd60e51b815260206004820152602660248201527f4f6e6c7920636f6e73756d6572732063616e20706572666f726d20746869732060448201526530b1ba34b7b760d11b6064820152608401610347565b336001600160a01b03165f80516020610e5a83398151915260056040516103779190610e12565b5f60208284031215610a9d575f80fd5b5035919050565b5f6020808352835180828501525f5b81811015610acf57858101830151858201604001528201610ab3565b505f604082860101526040601f19601f8301168501019250505092915050565b80356001600160a01b0381168114610b05575f80fd5b919050565b5f60208284031215610b1a575f80fd5b610b2382610aef565b9392505050565b634e487b7160e01b5f52602160045260245ffd5b60068110610b5a57634e487b7160e01b5f52602160045260245ffd5b9052565b602081016109378284610b3e565b803560068110610b05575f80fd5b5f60208284031215610b8a575f80fd5b610b2382610b6c565b5f8060408385031215610ba4575f80fd5b610bad83610aef565b9150610bbb60208401610b6c565b90509250929050565b600181811c90821680610bd857607f821691505b602082108103610bf657634e487b7160e01b5f52602260045260245ffd5b50919050565b610c068183610b3e565b604060208201819052601d908201527f4d616e75666163747572657220416374696f6e20506572666f726d65640000006060820152608001919050565b610c4d8183610b3e565b604060208201819052601c908201527f4469737472696275746f7220416374696f6e20506572666f726d6564000000006060820152608001919050565b60208082526022908201527f4f6e6c792061646d696e2063616e20706572666f726d2074686973206163746960408201526137b760f11b606082015260800190565b610cd68184610b3e565b5f60206040818401525f845481600182811c915080831680610cf957607f831692505b8583108103610d1657634e487b7160e01b85526022600452602485fd5b6040880183905260608801818015610d355760018114610d4b57610d74565b60ff198616825284151560051b82019650610d74565b5f8b8152602090205f5b86811015610d6e57815484820152908501908901610d55565b83019750505b50949a9950505050505050505050565b610d8e8183610b3e565b6040602082018190526019908201527f52657461696c657220416374696f6e20506572666f726d6564000000000000006060820152608001919050565b610dd58183610b3e565b6040602082018190526019908201527f537570706c69657220416374696f6e20506572666f726d6564000000000000006060820152608001919050565b610e1c8183610b3e565b6040602082018190526019908201527f436f6e73756d657220416374696f6e20506572666f726d656400000000000000606082015260800191905056fea91f1eb8f7af79f3b113d175e735894235716f9dcc4e5eb4178b396713df3f5ca2646970667358221220091f957ba666458e04dc6ac3773c792c2dfa939948276fece06047f839c7515b64736f6c63430008140033",
  "immutableReferences": {},
  "source": "// SPDX-License-Identifier: MIT\r\npragma solidity >=0.4.22 <0.9.0;\r\n\r\ncontract Roles {\r\n    address public admin;\r\n\r\n    enum Role { None, Supplier, Manufacturer, Distributor, Retailer, Consumer }\r\n    mapping(address => Role) public userRoles;\r\n    mapping(uint256 => string) public roleDescriptions; // Use uint256 instead of Role\r\n\r\n    event RoleAssigned(address indexed user, Role role, string description);\r\n    event RoleRevoked(address indexed user, Role role, string description);\r\n    event AdminTransferred(address indexed oldAdmin, address indexed newAdmin);\r\n    event RoleActionPerformed(address indexed user, Role role, string action);\r\n\r\n    modifier onlyAdmin() {\r\n        require(msg.sender == admin, \"Only admin can perform this action\");\r\n        _;\r\n    }\r\n\r\n    modifier onlySupplier() {\r\n        require(userRoles[msg.sender] == Role.Supplier, \"Only suppliers can perform this action\");\r\n        _;\r\n    }\r\n\r\n    modifier onlyManufacturer() {\r\n        require(userRoles[msg.sender] == Role.Manufacturer, \"Only manufacturers can perform this action\");\r\n        _;\r\n    }\r\n\r\n    modifier onlyDistributor() {\r\n        require(userRoles[msg.sender] == Role.Distributor, \"Only distributors can perform this action\");\r\n        _;\r\n    }\r\n\r\n    modifier onlyRetailer() {\r\n        require(userRoles[msg.sender] == Role.Retailer, \"Only retailers can perform this action\");\r\n        _;\r\n    }\r\n\r\n    modifier onlyConsumer() {\r\n        require(userRoles[msg.sender] == Role.Consumer, \"Only consumers can perform this action\");\r\n        _;\r\n    }\r\n\r\n    constructor() public {\r\n        admin = msg.sender;\r\n\r\n        // Initialize role descriptions\r\n        roleDescriptions[uint256(Role.None)] = \"No Role Assigned\";\r\n        roleDescriptions[uint256(Role.Supplier)] = \"Raw Material Supplier\";\r\n        roleDescriptions[uint256(Role.Manufacturer)] = \"Manufacturer\";\r\n        roleDescriptions[uint256(Role.Distributor)] = \"Distributor\";\r\n        roleDescriptions[uint256(Role.Retailer)] = \"Retailer\";\r\n        roleDescriptions[uint256(Role.Consumer)] = \"Consumer\";\r\n    }\r\n\r\n    // Assign a role to a user\r\n    function assignRole(address _user, Role _role) public onlyAdmin {\r\n        require(_role != Role.None, \"Invalid role\");\r\n        require(userRoles[_user] == Role.None, \"User already has a role\");\r\n\r\n        userRoles[_user] = _role;\r\n        emit RoleAssigned(_user, _role, roleDescriptions[uint256(_role)]);\r\n    }\r\n\r\n    // Revoke a user's role\r\n    function revokeRole(address _user) public onlyAdmin {\r\n        require(userRoles[_user] != Role.None, \"User has no role assigned\");\r\n\r\n        Role revokedRole = userRoles[_user];\r\n        userRoles[_user] = Role.None;\r\n        emit RoleRevoked(_user, revokedRole, roleDescriptions[uint256(revokedRole)]);\r\n    }\r\n\r\n    // Transfer admin privileges to another user\r\n    function transferAdmin(address _newAdmin) public onlyAdmin {\r\n        require(_newAdmin != address(0), \"Invalid address for new admin\");\r\n        emit AdminTransferred(admin, _newAdmin);\r\n        admin = _newAdmin;\r\n    }\r\n\r\n    // Utility function to check if a user has a specific role\r\n    function hasRole(address _user, Role _role) public view returns (bool) {\r\n        return userRoles[_user] == _role;\r\n    }\r\n\r\n    // Get the role of a user\r\n    function getUserRole(address _user) public view returns (Role) {\r\n        return userRoles[_user];\r\n    }\r\n\r\n    // Get the description of a role\r\n    function getRoleDescription(Role _role) public view returns (string memory) {\r\n        return roleDescriptions[uint256(_role)];\r\n    }\r\n\r\n    // Example: Function restricted to suppliers\r\n    function supplierAction() public onlySupplier {\r\n        emit RoleActionPerformed(msg.sender, Role.Supplier, \"Supplier Action Performed\");\r\n        // Logic for suppliers\r\n    }\r\n\r\n    // Example: Function restricted to manufacturers\r\n    function manufacturerAction() public onlyManufacturer {\r\n        emit RoleActionPerformed(msg.sender, Role.Manufacturer, \"Manufacturer Action Performed\");\r\n        // Logic for manufacturers\r\n    }\r\n\r\n    // Example: Function restricted to distributors\r\n    function distributorAction() public onlyDistributor {\r\n        emit RoleActionPerformed(msg.sender, Role.Distributor, \"Distributor Action Performed\");\r\n        // Logic for distributors\r\n    }\r\n\r\n    // Example: Function restricted to retailers\r\n    function retailerAction() public onlyRetailer {\r\n        emit RoleActionPerformed(msg.sender, Role.Retailer, \"Retailer Action Performed\");\r\n        // Logic for retailers\r\n    }\r\n\r\n    // Example: Function restricted to consumers\r\n    function consumerAction() public onlyConsumer {\r\n        emit RoleActionPerformed(msg.sender, Role.Consumer, \"Consumer Action Performed\");\r\n        // Logic for consumers\r\n    }\r\n}",
  "sourcePath": "C:\\Users\\Sharma\\Desktop\\New folder\\Coffee Supply Chain\\New Supply Chain Blockchain\\contracts\\Roles.sol",
  "compiler": {
    "name": "solc",
    "version": "0.8.20+commit.a1b79de6.Emscripten.clang"
  },
  "schemaVersion": "3.4.16",
  "updatedAt": "2025-03-29T09:34:26.875Z",
  "devdoc": {
    "kind": "dev",
    "methods": {},
    "version": 1
  },
  "userdoc": {
    "kind": "user",
    "methods": {},
    "version": 1
  }
}