{
  "contractName": "SupplyChain",
  "abi": [
    {
      "inputs": [],
      "payable": false,
      "stateMutability": "nonpayable",
      "type": "constructor"
    },
    {
      "anonymous": false,
      "inputs": [
        {
          "indexed": true,
          "internalType": "address",
          "name": "oldAdmin",
          "type": "address"
        },
        {
          "indexed": true,
          "internalType": "address",
          "name": "newAdmin",
          "type": "address"
        }
      ],
      "name": "AdminTransferred",
      "type": "event"
    },
    {
      "anonymous": false,
      "inputs": [
        {
          "indexed": false,
          "internalType": "uint256",
          "name": "id",
          "type": "uint256"
        },
        {
          "indexed": false,
          "internalType": "string",
          "name": "name",
          "type": "string"
        },
        {
          "indexed": false,
          "internalType": "uint256",
          "name": "batchNumber",
          "type": "uint256"
        }
      ],
      "name": "MedicineAdded",
      "type": "event"
    },
    {
      "anonymous": false,
      "inputs": [
        {
          "indexed": false,
          "internalType": "uint256",
          "name": "id",
          "type": "uint256"
        },
        {
          "indexed": false,
          "internalType": "enum SupplyChain.STAGE",
          "name": "stage",
          "type": "uint8"
        }
      ],
      "name": "MedicineUpdated",
      "type": "event"
    },
    {
      "anonymous": false,
      "inputs": [
        {
          "indexed": false,
          "internalType": "uint256",
          "name": "id",
          "type": "uint256"
        },
        {
          "indexed": false,
          "internalType": "string",
          "name": "qrCode",
          "type": "string"
        }
      ],
      "name": "QRCodeGenerated",
      "type": "event"
    },
    {
      "anonymous": false,
      "inputs": [
        {
          "indexed": true,
          "internalType": "address",
          "name": "user",
          "type": "address"
        },
        {
          "indexed": false,
          "internalType": "enum Roles.Role",
          "name": "role",
          "type": "uint8"
        },
        {
          "indexed": false,
          "internalType": "string",
          "name": "action",
          "type": "string"
        }
      ],
      "name": "RoleActionPerformed",
      "type": "event"
    },
    {
      "anonymous": false,
      "inputs": [
        {
          "indexed": true,
          "internalType": "address",
          "name": "user",
          "type": "address"
        },
        {
          "indexed": false,
          "internalType": "enum Roles.Role",
          "name": "role",
          "type": "uint8"
        },
        {
          "indexed": false,
          "internalType": "string",
          "name": "description",
          "type": "string"
        }
      ],
      "name": "RoleAssigned",
      "type": "event"
    },
    {
      "anonymous": false,
      "inputs": [
        {
          "indexed": true,
          "internalType": "address",
          "name": "user",
          "type": "address"
        },
        {
          "indexed": false,
          "internalType": "enum Roles.Role",
          "name": "role",
          "type": "uint8"
        },
        {
          "indexed": false,
          "internalType": "string",
          "name": "description",
          "type": "string"
        }
      ],
      "name": "RoleRevoked",
      "type": "event"
    },
    {
      "anonymous": false,
      "inputs": [
        {
          "indexed": false,
          "internalType": "uint256",
          "name": "id",
          "type": "uint256"
        },
        {
          "indexed": false,
          "internalType": "string",
          "name": "conditions",
          "type": "string"
        }
      ],
      "name": "StorageConditionsUpdated",
      "type": "event"
    },
    {
      "constant": true,
      "inputs": [
        {
          "internalType": "uint256",
          "name": "",
          "type": "uint256"
        }
      ],
      "name": "DIS",
      "outputs": [
        {
          "internalType": "address",
          "name": "addr",
          "type": "address"
        },
        {
          "internalType": "uint256",
          "name": "id",
          "type": "uint256"
        },
        {
          "internalType": "string",
          "name": "name",
          "type": "string"
        },
        {
          "internalType": "string",
          "name": "place",
          "type": "string"
        }
      ],
      "payable": false,
      "stateMutability": "view",
      "type": "function"
    },
    {
      "constant": true,
      "inputs": [
        {
          "internalType": "uint256",
          "name": "",
          "type": "uint256"
        }
      ],
      "name": "MAN",
      "outputs": [
        {
          "internalType": "address",
          "name": "addr",
          "type": "address"
        },
        {
          "internalType": "uint256",
          "name": "id",
          "type": "uint256"
        },
        {
          "internalType": "string",
          "name": "name",
          "type": "string"
        },
        {
          "internalType": "string",
          "name": "place",
          "type": "string"
        }
      ],
      "payable": false,
      "stateMutability": "view",
      "type": "function"
    },
    {
      "constant": true,
      "inputs": [
        {
          "internalType": "uint256",
          "name": "",
          "type": "uint256"
        }
      ],
      "name": "MedicineStock",
      "outputs": [
        {
          "internalType": "uint256",
          "name": "id",
          "type": "uint256"
        },
        {
          "components": [
            {
              "internalType": "string",
              "name": "name",
              "type": "string"
            },
            {
              "internalType": "string",
              "name": "description",
              "type": "string"
            },
            {
              "internalType": "uint256",
              "name": "batchNumber",
              "type": "uint256"
            },
            {
              "internalType": "uint256",
              "name": "expirationDate",
              "type": "uint256"
            }
          ],
          "internalType": "struct SupplyChain.MedicineDetails",
          "name": "details",
          "type": "tuple"
        },
        {
          "components": [
            {
              "internalType": "uint256",
              "name": "RMSid",
              "type": "uint256"
            },
            {
              "internalType": "uint256",
              "name": "MANid",
              "type": "uint256"
            },
            {
              "internalType": "uint256",
              "name": "DISid",
              "type": "uint256"
            },
            {
              "internalType": "uint256",
              "name": "RETid",
              "type": "uint256"
            },
            {
              "internalType": "string",
              "name": "qrCode",
              "type": "string"
            },
            {
              "internalType": "string",
              "name": "storageConditions",
              "type": "string"
            },
            {
              "internalType": "enum SupplyChain.STAGE",
              "name": "stage",
              "type": "uint8"
            }
          ],
          "internalType": "struct SupplyChain.MedicineTracking",
          "name": "tracking",
          "type": "tuple"
        }
      ],
      "payable": false,
      "stateMutability": "view",
      "type": "function"
    },
    {
      "constant": true,
      "inputs": [],
      "name": "Owner",
      "outputs": [
        {
          "internalType": "address",
          "name": "",
          "type": "address"
        }
      ],
      "payable": false,
      "stateMutability": "view",
      "type": "function"
    },
    {
      "constant": true,
      "inputs": [
        {
          "internalType": "uint256",
          "name": "",
          "type": "uint256"
        }
      ],
      "name": "RET",
      "outputs": [
        {
          "internalType": "address",
          "name": "addr",
          "type": "address"
        },
        {
          "internalType": "uint256",
          "name": "id",
          "type": "uint256"
        },
        {
          "internalType": "string",
          "name": "name",
          "type": "string"
        },
        {
          "internalType": "string",
          "name": "place",
          "type": "string"
        }
      ],
      "payable": false,
      "stateMutability": "view",
      "type": "function"
    },
    {
      "constant": true,
      "inputs": [
        {
          "internalType": "uint256",
          "name": "",
          "type": "uint256"
        }
      ],
      "name": "RMS",
      "outputs": [
        {
          "internalType": "address",
          "name": "addr",
          "type": "address"
        },
        {
          "internalType": "uint256",
          "name": "id",
          "type": "uint256"
        },
        {
          "internalType": "string",
          "name": "name",
          "type": "string"
        },
        {
          "internalType": "string",
          "name": "place",
          "type": "string"
        }
      ],
      "payable": false,
      "stateMutability": "view",
      "type": "function"
    },
    {
      "constant": true,
      "inputs": [],
      "name": "admin",
      "outputs": [
        {
          "internalType": "address",
          "name": "",
          "type": "address"
        }
      ],
      "payable": false,
      "stateMutability": "view",
      "type": "function"
    },
    {
      "constant": false,
      "inputs": [
        {
          "internalType": "address",
          "name": "_user",
          "type": "address"
        },
        {
          "internalType": "enum Roles.Role",
          "name": "_role",
          "type": "uint8"
        }
      ],
      "name": "assignRole",
      "outputs": [],
      "payable": false,
      "stateMutability": "nonpayable",
      "type": "function"
    },
    {
      "constant": false,
      "inputs": [],
      "name": "consumerAction",
      "outputs": [],
      "payable": false,
      "stateMutability": "nonpayable",
      "type": "function"
    },
    {
      "constant": true,
      "inputs": [],
      "name": "disCtr",
      "outputs": [
        {
          "internalType": "uint256",
          "name": "",
          "type": "uint256"
        }
      ],
      "payable": false,
      "stateMutability": "view",
      "type": "function"
    },
    {
      "constant": false,
      "inputs": [],
      "name": "distributorAction",
      "outputs": [],
      "payable": false,
      "stateMutability": "nonpayable",
      "type": "function"
    },
    {
      "constant": true,
      "inputs": [
        {
          "internalType": "enum Roles.Role",
          "name": "_role",
          "type": "uint8"
        }
      ],
      "name": "getRoleDescription",
      "outputs": [
        {
          "internalType": "string",
          "name": "",
          "type": "string"
        }
      ],
      "payable": false,
      "stateMutability": "view",
      "type": "function"
    },
    {
      "constant": true,
      "inputs": [
        {
          "internalType": "address",
          "name": "_user",
          "type": "address"
        }
      ],
      "name": "getUserRole",
      "outputs": [
        {
          "internalType": "enum Roles.Role",
          "name": "",
          "type": "uint8"
        }
      ],
      "payable": false,
      "stateMutability": "view",
      "type": "function"
    },
    {
      "constant": true,
      "inputs": [
        {
          "internalType": "address",
          "name": "_user",
          "type": "address"
        },
        {
          "internalType": "enum Roles.Role",
          "name": "_role",
          "type": "uint8"
        }
      ],
      "name": "hasRole",
      "outputs": [
        {
          "internalType": "bool",
          "name": "",
          "type": "bool"
        }
      ],
      "payable": false,
      "stateMutability": "view",
      "type": "function"
    },
    {
      "constant": true,
      "inputs": [],
      "name": "manCtr",
      "outputs": [
        {
          "internalType": "uint256",
          "name": "",
          "type": "uint256"
        }
      ],
      "payable": false,
      "stateMutability": "view",
      "type": "function"
    },
    {
      "constant": false,
      "inputs": [],
      "name": "manufacturerAction",
      "outputs": [],
      "payable": false,
      "stateMutability": "nonpayable",
      "type": "function"
    },
    {
      "constant": true,
      "inputs": [],
      "name": "medicineCtr",
      "outputs": [
        {
          "internalType": "uint256",
          "name": "",
          "type": "uint256"
        }
      ],
      "payable": false,
      "stateMutability": "view",
      "type": "function"
    },
    {
      "constant": true,
      "inputs": [],
      "name": "retCtr",
      "outputs": [
        {
          "internalType": "uint256",
          "name": "",
          "type": "uint256"
        }
      ],
      "payable": false,
      "stateMutability": "view",
      "type": "function"
    },
    {
      "constant": false,
      "inputs": [],
      "name": "retailerAction",
      "outputs": [],
      "payable": false,
      "stateMutability": "nonpayable",
      "type": "function"
    },
    {
      "constant": false,
      "inputs": [
        {
          "internalType": "address",
          "name": "_user",
          "type": "address"
        }
      ],
      "name": "revokeRole",
      "outputs": [],
      "payable": false,
      "stateMutability": "nonpayable",
      "type": "function"
    },
    {
      "constant": true,
      "inputs": [],
      "name": "rmsCtr",
      "outputs": [
        {
          "internalType": "uint256",
          "name": "",
          "type": "uint256"
        }
      ],
      "payable": false,
      "stateMutability": "view",
      "type": "function"
    },
    {
      "constant": true,
      "inputs": [
        {
          "internalType": "uint256",
          "name": "",
          "type": "uint256"
        }
      ],
      "name": "roleDescriptions",
      "outputs": [
        {
          "internalType": "string",
          "name": "",
          "type": "string"
        }
      ],
      "payable": false,
      "stateMutability": "view",
      "type": "function"
    },
    {
      "constant": false,
      "inputs": [],
      "name": "supplierAction",
      "outputs": [],
      "payable": false,
      "stateMutability": "nonpayable",
      "type": "function"
    },
    {
      "constant": false,
      "inputs": [
        {
          "internalType": "address",
          "name": "_newAdmin",
          "type": "address"
        }
      ],
      "name": "transferAdmin",
      "outputs": [],
      "payable": false,
      "stateMutability": "nonpayable",
      "type": "function"
    },
    {
      "constant": true,
      "inputs": [
        {
          "internalType": "address",
          "name": "",
          "type": "address"
        }
      ],
      "name": "userRoles",
      "outputs": [
        {
          "internalType": "enum Roles.Role",
          "name": "",
          "type": "uint8"
        }
      ],
      "payable": false,
      "stateMutability": "view",
      "type": "function"
    },
    {
      "constant": false,
      "inputs": [
        {
          "internalType": "address",
          "name": "_address",
          "type": "address"
        },
        {
          "internalType": "string",
          "name": "_name",
          "type": "string"
        },
        {
          "internalType": "string",
          "name": "_place",
          "type": "string"
        }
      ],
      "name": "addRMS",
      "outputs": [],
      "payable": false,
      "stateMutability": "nonpayable",
      "type": "function"
    },
    {
      "constant": false,
      "inputs": [
        {
          "internalType": "address",
          "name": "_address",
          "type": "address"
        },
        {
          "internalType": "string",
          "name": "_name",
          "type": "string"
        },
        {
          "internalType": "string",
          "name": "_place",
          "type": "string"
        }
      ],
      "name": "addManufacturer",
      "outputs": [],
      "payable": false,
      "stateMutability": "nonpayable",
      "type": "function"
    },
    {
      "constant": false,
      "inputs": [
        {
          "internalType": "address",
          "name": "_address",
          "type": "address"
        },
        {
          "internalType": "string",
          "name": "_name",
          "type": "string"
        },
        {
          "internalType": "string",
          "name": "_place",
          "type": "string"
        }
      ],
      "name": "addDistributor",
      "outputs": [],
      "payable": false,
      "stateMutability": "nonpayable",
      "type": "function"
    },
    {
      "constant": false,
      "inputs": [
        {
          "internalType": "address",
          "name": "_address",
          "type": "address"
        },
        {
          "internalType": "string",
          "name": "_name",
          "type": "string"
        },
        {
          "internalType": "string",
          "name": "_place",
          "type": "string"
        }
      ],
      "name": "addRetailer",
      "outputs": [],
      "payable": false,
      "stateMutability": "nonpayable",
      "type": "function"
    },
    {
      "constant": false,
      "inputs": [
        {
          "internalType": "string",
          "name": "_name",
          "type": "string"
        },
        {
          "internalType": "string",
          "name": "_description",
          "type": "string"
        },
        {
          "internalType": "uint256",
          "name": "_batchNumber",
          "type": "uint256"
        },
        {
          "internalType": "uint256",
          "name": "_expirationDate",
          "type": "uint256"
        },
        {
          "internalType": "uint256",
          "name": "_RMSid",
          "type": "uint256"
        }
      ],
      "name": "addMedicine",
      "outputs": [],
      "payable": false,
      "stateMutability": "nonpayable",
      "type": "function"
    },
    {
      "constant": false,
      "inputs": [
        {
          "internalType": "uint256",
          "name": "_id",
          "type": "uint256"
        },
        {
          "internalType": "uint256",
          "name": "_MANid",
          "type": "uint256"
        }
      ],
      "name": "updateManufacturingDetails",
      "outputs": [],
      "payable": false,
      "stateMutability": "nonpayable",
      "type": "function"
    },
    {
      "constant": false,
      "inputs": [
        {
          "internalType": "uint256",
          "name": "_id",
          "type": "uint256"
        },
        {
          "internalType": "uint256",
          "name": "_DISid",
          "type": "uint256"
        }
      ],
      "name": "updateDistributionDetails",
      "outputs": [],
      "payable": false,
      "stateMutability": "nonpayable",
      "type": "function"
    },
    {
      "constant": false,
      "inputs": [
        {
          "internalType": "uint256",
          "name": "_id",
          "type": "uint256"
        },
        {
          "internalType": "uint256",
          "name": "_RETid",
          "type": "uint256"
        }
      ],
      "name": "updateRetailDetails",
      "outputs": [],
      "payable": false,
      "stateMutability": "nonpayable",
      "type": "function"
    },
    {
      "constant": false,
      "inputs": [
        {
          "internalType": "uint256",
          "name": "_id",
          "type": "uint256"
        }
      ],
      "name": "markAsSold",
      "outputs": [],
      "payable": false,
      "stateMutability": "nonpayable",
      "type": "function"
    },
    {
      "constant": false,
      "inputs": [
        {
          "internalType": "uint256",
          "name": "_id",
          "type": "uint256"
        },
        {
          "internalType": "string",
          "name": "_conditions",
          "type": "string"
        }
      ],
      "name": "updateStorageConditions",
      "outputs": [],
      "payable": false,
      "stateMutability": "nonpayable",
      "type": "function"
    },
    {
      "constant": false,
      "inputs": [
        {
          "internalType": "uint256",
          "name": "_id",
          "type": "uint256"
        },
        {
          "internalType": "string",
          "name": "_qrCode",
          "type": "string"
        }
      ],
      "name": "generateQRCode",
      "outputs": [],
      "payable": false,
      "stateMutability": "nonpayable",
      "type": "function"
    }
  ],
  "bytecode": "0x6080604052600060045560006005556000600655600060075560006008553480156200002a57600080fd5b50336000806101000a81548173ffffffffffffffffffffffffffffffffffffffff021916908373ffffffffffffffffffffffffffffffffffffffff1602179055506040518060400160405280601081526020017f4e6f20526f6c652041737369676e65640000000000000000000000000000000081525060026000806005811115620000b257fe5b81526020019081526020016000209080519060200190620000d592919062000338565b506040518060400160405280601581526020017f526177204d6174657269616c20537570706c696572000000000000000000000081525060026000600160058111156200011e57fe5b815260200190815260200160002090805190602001906200014192919062000338565b506040518060400160405280600c81526020017f4d616e756661637475726572000000000000000000000000000000000000000081525060026000600260058111156200018a57fe5b81526020019081526020016000209080519060200190620001ad92919062000338565b506040518060400160405280600b81526020017f4469737472696275746f720000000000000000000000000000000000000000008152506002600060036005811115620001f657fe5b815260200190815260200160002090805190602001906200021992919062000338565b506040518060400160405280600881526020017f52657461696c657200000000000000000000000000000000000000000000000081525060026000600460058111156200026257fe5b815260200190815260200160002090805190602001906200028592919062000338565b506040518060400160405280600881526020017f436f6e73756d657200000000000000000000000000000000000000000000000081525060026000600580811115620002cd57fe5b81526020019081526020016000209080519060200190620002f092919062000338565b5033600360006101000a81548173ffffffffffffffffffffffffffffffffffffffff021916908373ffffffffffffffffffffffffffffffffffffffff160217905550620003e7565b828054600181600116156101000203166002900490600052602060002090601f016020900481019282601f106200037b57805160ff1916838001178555620003ac565b82800160010185558215620003ac579182015b82811115620003ab5782518255916020019190600101906200038e565b5b509050620003bb9190620003bf565b5090565b620003e491905b80821115620003e0576000816000905550600101620003c6565b5090565b90565b6147ad80620003f76000396000f3fe608060405234801561001057600080fd5b506004361061021c5760003560e01c806375829def11610125578063b4a99a4e116100ad578063d2e3250f1161007c578063d2e3250f146105de578063dd286398146105fa578063eb1a06b514610618578063eef5cb401461064a578063f851a4401461067d5761021c565b8063b4a99a4e14610579578063b8adb62914610597578063c61fbebd146105a1578063cc403069146105ab5761021c565b8063857ddb04116100f4578063857ddb04146104d757806395a8c58d146104f35780639b0773c3146105235780639b22cc8c1461053f578063a95f29d91461055b5761021c565b806375829def146104775780637cfc455c146104935780637e43d94d1461049d57806380e52e3f146104bb5761021c565b806330c2d3e6116101a85780635f9f07f9116101775780635f9f07f9146103d7578063630a195b146103f35780636a992c9f1461040f5780636bfd79af1461042b57806374d5e100146104475761021c565b806330c2d3e61461034c578063438e9c4d1461037c57806354bf57311461039a57806359bf286f146103a45761021c565b80632931a108116101ef5780632931a108146102a75780632a4af440146102c35780632b0187ac146102df5780632b70b08d146103125780632bdb2e6b1461032e5761021c565b80630b2e0fb3146102215780631385be651461023d5780631791fdd11461026d5780632782085114610277575b600080fd5b61023b60048036036102369190810190613650565b61069b565b005b610257600480360361025291908101906135d3565b6108fc565b604051610264919061420c565b60405180910390f35b6102756109ac565b005b610291600480360361028c919081019061341f565b610aa2565b60405161029e91906140db565b60405180910390f35b6102c160048036036102bc91908101906135d3565b610af8565b005b6102dd60048036036102d89190810190613484565b610c94565b005b6102f960048036036102f491908101906135d3565b610e16565b604051610309949392919061406d565b60405180910390f35b61032c60048036036103279190810190613484565b610f96565b005b610336611118565b6040516103439190614490565b60405180910390f35b61036660048036036103619190810190613503565b61111e565b604051610373919061422e565b60405180910390f35b6103846111de565b6040516103919190614490565b60405180910390f35b6103a26111e4565b005b6103be60048036036103b991908101906135d3565b6112da565b6040516103ce949392919061406d565b60405180910390f35b6103f160048036036103ec919081019061352c565b61145a565b005b61040d60048036036104089190810190613448565b6117a8565b005b61042960048036036104249190810190613484565b611a07565b005b610445600480360361044091908101906135fc565b611b89565b005b610461600480360361045c919081019061341f565b611c83565b60405161046e91906140db565b60405180910390f35b610491600480360361048c919081019061341f565b611ca3565b005b61049b611e60565b005b6104a5611f56565b6040516104b29190614490565b60405180910390f35b6104d560048036036104d0919081019061341f565b611f5c565b005b6104f160048036036104ec9190810190613484565b6121b4565b005b61050d60048036036105089190810190613448565b612336565b60405161051a91906140c0565b60405180910390f35b61053d600480360361053891908101906135fc565b6123a5565b005b61055960048036036105549190810190613650565b612534565b005b610563612795565b6040516105709190614490565b60405180910390f35b61058161279b565b60405161058e9190614052565b60405180910390f35b61059f6127c1565b005b6105a96128b7565b005b6105c560048036036105c091908101906135d3565b6129ac565b6040516105d5949392919061406d565b60405180910390f35b6105f860048036036105f39190810190613650565b612b2c565b005b610602612d8d565b60405161060f9190614490565b60405180910390f35b610632600480360361062d91908101906135d3565b612d93565b60405161064193929190614542565b60405180910390f35b610664600480360361065f91908101906135d3565b6130c2565b604051610674949392919061406d565b60405180910390f35b610685613242565b6040516106929190614052565b60405180910390f35b600460058111156106a857fe5b600160003373ffffffffffffffffffffffffffffffffffffffff1673ffffffffffffffffffffffffffffffffffffffff16815260200190815260200160002060009054906101000a900460ff16600581111561070057fe5b14610740576040517f08c379a0000000000000000000000000000000000000000000000000000000008152600401610737906142d0565b60405180910390fd5b6003600581111561074d57fe5b600d600084815260200190815260200160002060050160060160009054906101000a900460ff16600581111561077f57fe5b146107bf576040517f08c379a00000000000000000000000000000000000000000000000000000000081526004016107b690614330565b60405180910390fd5b600073ffffffffffffffffffffffffffffffffffffffff16600c600083815260200190815260200160002060000160009054906101000a900473ffffffffffffffffffffffffffffffffffffffff1673ffffffffffffffffffffffffffffffffffffffff161415610865576040517f08c379a000000000000000000000000000000000000000000000000000000000815260040161085c90614350565b60405180910390fd5b80600d6000848152602001908152602001600020600501600301819055506004600d600084815260200190815260200160002060050160060160006101000a81548160ff021916908360058111156108b957fe5b02179055507fe2ef9981bce5c99d63f54c8662e6c70e3fcb523242df54b0fe2ad0793e2201a78260046040516108f09291906144ab565b60405180910390a15050565b60026020528060005260406000206000915090508054600181600116156101000203166002900480601f0160208091040260200160405190810160405280929190818152602001828054600181600116156101000203166002900480156109a45780601f10610979576101008083540402835291602001916109a4565b820191906000526020600020905b81548152906001019060200180831161098757829003601f168201915b505050505081565b600260058111156109b957fe5b600160003373ffffffffffffffffffffffffffffffffffffffff1673ffffffffffffffffffffffffffffffffffffffff16815260200190815260200160002060009054906101000a900460ff166005811115610a1157fe5b14610a51576040517f08c379a0000000000000000000000000000000000000000000000000000000008152600401610a4890614310565b60405180910390fd5b3373ffffffffffffffffffffffffffffffffffffffff167fa91f1eb8f7af79f3b113d175e735894235716f9dcc4e5eb4178b396713df3f5c6002604051610a989190614154565b60405180910390a2565b6000600160008373ffffffffffffffffffffffffffffffffffffffff1673ffffffffffffffffffffffffffffffffffffffff16815260200190815260200160002060009054906101000a900460ff169050919050565b60046005811115610b0557fe5b600160003373ffffffffffffffffffffffffffffffffffffffff1673ffffffffffffffffffffffffffffffffffffffff16815260200190815260200160002060009054906101000a900460ff166005811115610b5d57fe5b14610b9d576040517f08c379a0000000000000000000000000000000000000000000000000000000008152600401610b94906142d0565b60405180910390fd5b60046005811115610baa57fe5b600d600083815260200190815260200160002060050160060160009054906101000a900460ff166005811115610bdc57fe5b14610c1c576040517f08c379a0000000000000000000000000000000000000000000000000000000008152600401610c1390614470565b60405180910390fd5b6005600d600083815260200190815260200160002060050160060160006101000a81548160ff02191690836005811115610c5257fe5b02179055507fe2ef9981bce5c99d63f54c8662e6c70e3fcb523242df54b0fe2ad0793e2201a7816005604051610c899291906144ab565b60405180910390a150565b6000809054906101000a900473ffffffffffffffffffffffffffffffffffffffff1673ffffffffffffffffffffffffffffffffffffffff163373ffffffffffffffffffffffffffffffffffffffff1614610d23576040517f08c379a0000000000000000000000000000000000000000000000000000000008152600401610d1a906143f0565b60405180910390fd5b60066000815480929190600101919050555060405180608001604052808473ffffffffffffffffffffffffffffffffffffffff168152602001600654815260200183815260200182815250600b6000600654815260200190815260200160002060008201518160000160006101000a81548173ffffffffffffffffffffffffffffffffffffffff021916908373ffffffffffffffffffffffffffffffffffffffff160217905550602082015181600101556040820151816002019080519060200190610df0929190613267565b506060820151816003019080519060200190610e0d929190613267565b50905050505050565b600b6020528060005260406000206000915090508060000160009054906101000a900473ffffffffffffffffffffffffffffffffffffffff1690806001015490806002018054600181600116156101000203166002900480601f016020809104026020016040519081016040528092919081815260200182805460018160011615610100020316600290048015610eee5780601f10610ec357610100808354040283529160200191610eee565b820191906000526020600020905b815481529060010190602001808311610ed157829003601f168201915b505050505090806003018054600181600116156101000203166002900480601f016020809104026020016040519081016040528092919081815260200182805460018160011615610100020316600290048015610f8c5780601f10610f6157610100808354040283529160200191610f8c565b820191906000526020600020905b815481529060010190602001808311610f6f57829003601f168201915b5050505050905084565b6000809054906101000a900473ffffffffffffffffffffffffffffffffffffffff1673ffffffffffffffffffffffffffffffffffffffff163373ffffffffffffffffffffffffffffffffffffffff1614611025576040517f08c379a000000000000000000000000000000000000000000000000000000000815260040161101c906143f0565b60405180910390fd5b60046000815480929190600101919050555060405180608001604052808473ffffffffffffffffffffffffffffffffffffffff16815260200160045481526020018381526020018281525060096000600454815260200190815260200160002060008201518160000160006101000a81548173ffffffffffffffffffffffffffffffffffffffff021916908373ffffffffffffffffffffffffffffffffffffffff1602179055506020820151816001015560408201518160020190805190602001906110f2929190613267565b50606082015181600301908051906020019061110f929190613267565b50905050505050565b60065481565b60606002600083600581111561113057fe5b81526020019081526020016000208054600181600116156101000203166002900480601f0160208091040260200160405190810160405280929190818152602001828054600181600116156101000203166002900480156111d25780601f106111a7576101008083540402835291602001916111d2565b820191906000526020600020905b8154815290600101906020018083116111b557829003601f168201915b50505050509050919050565b60055481565b600360058111156111f157fe5b600160003373ffffffffffffffffffffffffffffffffffffffff1673ffffffffffffffffffffffffffffffffffffffff16815260200190815260200160002060009054906101000a900460ff16600581111561124957fe5b14611289576040517f08c379a000000000000000000000000000000000000000000000000000000000815260040161128090614450565b60405180910390fd5b3373ffffffffffffffffffffffffffffffffffffffff167fa91f1eb8f7af79f3b113d175e735894235716f9dcc4e5eb4178b396713df3f5c60036040516112d091906141de565b60405180910390a2565b600c6020528060005260406000206000915090508060000160009054906101000a900473ffffffffffffffffffffffffffffffffffffffff1690806001015490806002018054600181600116156101000203166002900480601f0160208091040260200160405190810160405280929190818152602001828054600181600116156101000203166002900480156113b25780601f10611387576101008083540402835291602001916113b2565b820191906000526020600020905b81548152906001019060200180831161139557829003601f168201915b505050505090806003018054600181600116156101000203166002900480601f0160208091040260200160405190810160405280929190818152602001828054600181600116156101000203166002900480156114505780601f1061142557610100808354040283529160200191611450565b820191906000526020600020905b81548152906001019060200180831161143357829003601f168201915b5050505050905084565b6001600581111561146757fe5b600160003373ffffffffffffffffffffffffffffffffffffffff1673ffffffffffffffffffffffffffffffffffffffff16815260200190815260200160002060009054906101000a900460ff1660058111156114bf57fe5b146114ff576040517f08c379a00000000000000000000000000000000000000000000000000000000081526004016114f690614410565b60405180910390fd5b600073ffffffffffffffffffffffffffffffffffffffff166009600083815260200190815260200160002060000160009054906101000a900473ffffffffffffffffffffffffffffffffffffffff1673ffffffffffffffffffffffffffffffffffffffff1614156115a5576040517f08c379a000000000000000000000000000000000000000000000000000000000815260040161159c90614250565b60405180910390fd5b6008600081548092919060010191905055506040518060600160405280600854815260200160405180608001604052808881526020018781526020018681526020018581525081526020016040518060e001604052808481526020016000815260200160008152602001600081526020016040518060200160405280600081525081526020016040518060200160405280600081525081526020016001600581111561164d57fe5b815250815250600d60006008548152602001908152602001600020600082015181600001556020820151816001016000820151816000019080519060200190611697929190613267565b5060208201518160010190805190602001906116b4929190613267565b5060408201518160020155606082015181600301555050604082015181600501600082015181600001556020820151816001015560408201518160020155606082015181600301556080820151816004019080519060200190611718929190613267565b5060a0820151816005019080519060200190611735929190613267565b5060c08201518160060160006101000a81548160ff0219169083600581111561175a57fe5b021790555050509050507fd19ed2997779bdd7c0c657fd2a1bbcf4e3f642a49b129045326169d1f418f375600854868560405161179993929190614504565b60405180910390a15050505050565b6000809054906101000a900473ffffffffffffffffffffffffffffffffffffffff1673ffffffffffffffffffffffffffffffffffffffff163373ffffffffffffffffffffffffffffffffffffffff1614611837576040517f08c379a000000000000000000000000000000000000000000000000000000000815260040161182e906143f0565b60405180910390fd5b6000600581111561184457fe5b81600581111561185057fe5b1415611891576040517f08c379a0000000000000000000000000000000000000000000000000000000008152600401611888906142f0565b60405180910390fd5b6000600581111561189e57fe5b600160008473ffffffffffffffffffffffffffffffffffffffff1673ffffffffffffffffffffffffffffffffffffffff16815260200190815260200160002060009054906101000a900460ff1660058111156118f657fe5b14611936576040517f08c379a000000000000000000000000000000000000000000000000000000000815260040161192d906143d0565b60405180910390fd5b80600160008473ffffffffffffffffffffffffffffffffffffffff1673ffffffffffffffffffffffffffffffffffffffff16815260200190815260200160002060006101000a81548160ff0219169083600581111561199157fe5b02179055508173ffffffffffffffffffffffffffffffffffffffff167f6f9e8382effc1f2659a04b480fc00e03e9ea704a05c90d74db22a5fb12ee46af82600260008560058111156119df57fe5b81526020019081526020016000206040516119fb9291906140f6565b60405180910390a25050565b6000809054906101000a900473ffffffffffffffffffffffffffffffffffffffff1673ffffffffffffffffffffffffffffffffffffffff163373ffffffffffffffffffffffffffffffffffffffff1614611a96576040517f08c379a0000000000000000000000000000000000000000000000000000000008152600401611a8d906143f0565b60405180910390fd5b60056000815480929190600101919050555060405180608001604052808473ffffffffffffffffffffffffffffffffffffffff168152602001600554815260200183815260200182815250600a6000600554815260200190815260200160002060008201518160000160006101000a81548173ffffffffffffffffffffffffffffffffffffffff021916908373ffffffffffffffffffffffffffffffffffffffff160217905550602082015181600101556040820151816002019080519060200190611b63929190613267565b506060820151816003019080519060200190611b80929190613267565b50905050505050565b6000809054906101000a900473ffffffffffffffffffffffffffffffffffffffff1673ffffffffffffffffffffffffffffffffffffffff163373ffffffffffffffffffffffffffffffffffffffff1614611c18576040517f08c379a0000000000000000000000000000000000000000000000000000000008152600401611c0f906143f0565b60405180910390fd5b80600d60008481526020019081526020016000206005016004019080519060200190611c459291906132e7565b507fe041a16e704f07ecadcc3a2adc4fee6dc8f69789a538d1ebaaed3ca699e3f96d8282604051611c779291906144d4565b60405180910390a15050565b60016020528060005260406000206000915054906101000a900460ff1681565b6000809054906101000a900473ffffffffffffffffffffffffffffffffffffffff1673ffffffffffffffffffffffffffffffffffffffff163373ffffffffffffffffffffffffffffffffffffffff1614611d32576040517f08c379a0000000000000000000000000000000000000000000000000000000008152600401611d29906143f0565b60405180910390fd5b600073ffffffffffffffffffffffffffffffffffffffff168173ffffffffffffffffffffffffffffffffffffffff161415611da2576040517f08c379a0000000000000000000000000000000000000000000000000000000008152600401611d9990614290565b60405180910390fd5b8073ffffffffffffffffffffffffffffffffffffffff166000809054906101000a900473ffffffffffffffffffffffffffffffffffffffff1673ffffffffffffffffffffffffffffffffffffffff167ff8ccb027dfcd135e000e9d45e6cc2d662578a8825d4c45b5e32e0adf67e79ec660405160405180910390a3806000806101000a81548173ffffffffffffffffffffffffffffffffffffffff021916908373ffffffffffffffffffffffffffffffffffffffff16021790555050565b60046005811115611e6d57fe5b600160003373ffffffffffffffffffffffffffffffffffffffff1673ffffffffffffffffffffffffffffffffffffffff16815260200190815260200160002060009054906101000a900460ff166005811115611ec557fe5b14611f05576040517f08c379a0000000000000000000000000000000000000000000000000000000008152600401611efc906142d0565b60405180910390fd5b3373ffffffffffffffffffffffffffffffffffffffff167fa91f1eb8f7af79f3b113d175e735894235716f9dcc4e5eb4178b396713df3f5c6004604051611f4c91906141b0565b60405180910390a2565b60075481565b6000809054906101000a900473ffffffffffffffffffffffffffffffffffffffff1673ffffffffffffffffffffffffffffffffffffffff163373ffffffffffffffffffffffffffffffffffffffff1614611feb576040517f08c379a0000000000000000000000000000000000000000000000000000000008152600401611fe2906143f0565b60405180910390fd5b60006005811115611ff857fe5b600160008373ffffffffffffffffffffffffffffffffffffffff1673ffffffffffffffffffffffffffffffffffffffff16815260200190815260200160002060009054906101000a900460ff16600581111561205057fe5b1415612091576040517f08c379a0000000000000000000000000000000000000000000000000000000008152600401612088906143b0565b60405180910390fd5b6000600160008373ffffffffffffffffffffffffffffffffffffffff1673ffffffffffffffffffffffffffffffffffffffff16815260200190815260200160002060009054906101000a900460ff1690506000600160008473ffffffffffffffffffffffffffffffffffffffff1673ffffffffffffffffffffffffffffffffffffffff16815260200190815260200160002060006101000a81548160ff0219169083600581111561213e57fe5b02179055508173ffffffffffffffffffffffffffffffffffffffff167f285c4fb5c4d71e57b223e637eb34c928bbd52dc4435f3afeead12e99343c967a826002600085600581111561218c57fe5b81526020019081526020016000206040516121a89291906140f6565b60405180910390a25050565b6000809054906101000a900473ffffffffffffffffffffffffffffffffffffffff1673ffffffffffffffffffffffffffffffffffffffff163373ffffffffffffffffffffffffffffffffffffffff1614612243576040517f08c379a000000000000000000000000000000000000000000000000000000000815260040161223a906143f0565b60405180910390fd5b60076000815480929190600101919050555060405180608001604052808473ffffffffffffffffffffffffffffffffffffffff168152602001600754815260200183815260200182815250600c6000600754815260200190815260200160002060008201518160000160006101000a81548173ffffffffffffffffffffffffffffffffffffffff021916908373ffffffffffffffffffffffffffffffffffffffff160217905550602082015181600101556040820151816002019080519060200190612310929190613267565b50606082015181600301908051906020019061232d929190613267565b50905050505050565b600081600581111561234457fe5b600160008573ffffffffffffffffffffffffffffffffffffffff1673ffffffffffffffffffffffffffffffffffffffff16815260200190815260200160002060009054906101000a900460ff16600581111561239c57fe5b14905092915050565b600360058111156123b257fe5b600160003373ffffffffffffffffffffffffffffffffffffffff1673ffffffffffffffffffffffffffffffffffffffff16815260200190815260200160002060009054906101000a900460ff16600581111561240a57fe5b1461244a576040517f08c379a000000000000000000000000000000000000000000000000000000000815260040161244190614450565b60405180910390fd5b6003600581111561245757fe5b600d600084815260200190815260200160002060050160060160009054906101000a900460ff16600581111561248957fe5b146124c9576040517f08c379a00000000000000000000000000000000000000000000000000000000081526004016124c090614330565b60405180910390fd5b80600d600084815260200190815260200160002060050160050190805190602001906124f69291906132e7565b507fa3f59e66036fc8ebb5d92f08a18ad4a996baa1887ac89a6df1fd87aea976ee7782826040516125289291906144d4565b60405180910390a15050565b6002600581111561254157fe5b600160003373ffffffffffffffffffffffffffffffffffffffff1673ffffffffffffffffffffffffffffffffffffffff16815260200190815260200160002060009054906101000a900460ff16600581111561259957fe5b146125d9576040517f08c379a00000000000000000000000000000000000000000000000000000000081526004016125d090614310565b60405180910390fd5b600160058111156125e657fe5b600d600084815260200190815260200160002060050160060160009054906101000a900460ff16600581111561261857fe5b14612658576040517f08c379a000000000000000000000000000000000000000000000000000000000815260040161264f90614390565b60405180910390fd5b600073ffffffffffffffffffffffffffffffffffffffff16600a600083815260200190815260200160002060000160009054906101000a900473ffffffffffffffffffffffffffffffffffffffff1673ffffffffffffffffffffffffffffffffffffffff1614156126fe576040517f08c379a00000000000000000000000000000000000000000000000000000000081526004016126f5906142b0565b60405180910390fd5b80600d6000848152602001908152602001600020600501600101819055506002600d600084815260200190815260200160002060050160060160006101000a81548160ff0219169083600581111561275257fe5b02179055507fe2ef9981bce5c99d63f54c8662e6c70e3fcb523242df54b0fe2ad0793e2201a78260026040516127899291906144ab565b60405180910390a15050565b60085481565b600360009054906101000a900473ffffffffffffffffffffffffffffffffffffffff1681565b600160058111156127ce57fe5b600160003373ffffffffffffffffffffffffffffffffffffffff1673ffffffffffffffffffffffffffffffffffffffff16815260200190815260200160002060009054906101000a900460ff16600581111561282657fe5b14612866576040517f08c379a000000000000000000000000000000000000000000000000000000000815260040161285d90614410565b60405180910390fd5b3373ffffffffffffffffffffffffffffffffffffffff167fa91f1eb8f7af79f3b113d175e735894235716f9dcc4e5eb4178b396713df3f5c60016040516128ad9190614126565b60405180910390a2565b6005808111156128c357fe5b600160003373ffffffffffffffffffffffffffffffffffffffff1673ffffffffffffffffffffffffffffffffffffffff16815260200190815260200160002060009054906101000a900460ff16600581111561291b57fe5b1461295b576040517f08c379a000000000000000000000000000000000000000000000000000000000815260040161295290614370565b60405180910390fd5b3373ffffffffffffffffffffffffffffffffffffffff167fa91f1eb8f7af79f3b113d175e735894235716f9dcc4e5eb4178b396713df3f5c60056040516129a29190614182565b60405180910390a2565b600a6020528060005260406000206000915090508060000160009054906101000a900473ffffffffffffffffffffffffffffffffffffffff1690806001015490806002018054600181600116156101000203166002900480601f016020809104026020016040519081016040528092919081815260200182805460018160011615610100020316600290048015612a845780601f10612a5957610100808354040283529160200191612a84565b820191906000526020600020905b815481529060010190602001808311612a6757829003601f168201915b505050505090806003018054600181600116156101000203166002900480601f016020809104026020016040519081016040528092919081815260200182805460018160011615610100020316600290048015612b225780601f10612af757610100808354040283529160200191612b22565b820191906000526020600020905b815481529060010190602001808311612b0557829003601f168201915b5050505050905084565b60036005811115612b3957fe5b600160003373ffffffffffffffffffffffffffffffffffffffff1673ffffffffffffffffffffffffffffffffffffffff16815260200190815260200160002060009054906101000a900460ff166005811115612b9157fe5b14612bd1576040517f08c379a0000000000000000000000000000000000000000000000000000000008152600401612bc890614450565b60405180910390fd5b60026005811115612bde57fe5b600d600084815260200190815260200160002060050160060160009054906101000a900460ff166005811115612c1057fe5b14612c50576040517f08c379a0000000000000000000000000000000000000000000000000000000008152600401612c4790614270565b60405180910390fd5b600073ffffffffffffffffffffffffffffffffffffffff16600b600083815260200190815260200160002060000160009054906101000a900473ffffffffffffffffffffffffffffffffffffffff1673ffffffffffffffffffffffffffffffffffffffff161415612cf6576040517f08c379a0000000000000000000000000000000000000000000000000000000008152600401612ced90614430565b60405180910390fd5b80600d6000848152602001908152602001600020600501600201819055506003600d600084815260200190815260200160002060050160060160006101000a81548160ff02191690836005811115612d4a57fe5b02179055507fe2ef9981bce5c99d63f54c8662e6c70e3fcb523242df54b0fe2ad0793e2201a7826003604051612d819291906144ab565b60405180910390a15050565b60045481565b600d60205280600052604060002060009150905080600001549080600101604051806080016040529081600082018054600181600116156101000203166002900480601f016020809104026020016040519081016040528092919081815260200182805460018160011615610100020316600290048015612e555780601f10612e2a57610100808354040283529160200191612e55565b820191906000526020600020905b815481529060010190602001808311612e3857829003601f168201915b50505050508152602001600182018054600181600116156101000203166002900480601f016020809104026020016040519081016040528092919081815260200182805460018160011615610100020316600290048015612ef75780601f10612ecc57610100808354040283529160200191612ef7565b820191906000526020600020905b815481529060010190602001808311612eda57829003601f168201915b505050505081526020016002820154815260200160038201548152505090806005016040518060e001604052908160008201548152602001600182015481526020016002820154815260200160038201548152602001600482018054600181600116156101000203166002900480601f016020809104026020016040519081016040528092919081815260200182805460018160011615610100020316600290048015612fe55780601f10612fba57610100808354040283529160200191612fe5565b820191906000526020600020905b815481529060010190602001808311612fc857829003601f168201915b50505050508152602001600582018054600181600116156101000203166002900480601f0160208091040260200160405190810160405280929190818152602001828054600181600116156101000203166002900480156130875780601f1061305c57610100808354040283529160200191613087565b820191906000526020600020905b81548152906001019060200180831161306a57829003601f168201915b505050505081526020016006820160009054906101000a900460ff1660058111156130ae57fe5b60058111156130b957fe5b81525050905083565b60096020528060005260406000206000915090508060000160009054906101000a900473ffffffffffffffffffffffffffffffffffffffff1690806001015490806002018054600181600116156101000203166002900480601f01602080910402602001604051908101604052809291908181526020018280546001816001161561010002031660029004801561319a5780601f1061316f5761010080835404028352916020019161319a565b820191906000526020600020905b81548152906001019060200180831161317d57829003601f168201915b505050505090806003018054600181600116156101000203166002900480601f0160208091040260200160405190810160405280929190818152602001828054600181600116156101000203166002900480156132385780601f1061320d57610100808354040283529160200191613238565b820191906000526020600020905b81548152906001019060200180831161321b57829003601f168201915b5050505050905084565b6000809054906101000a900473ffffffffffffffffffffffffffffffffffffffff1681565b828054600181600116156101000203166002900490600052602060002090601f016020900481019282601f106132a857805160ff19168380011785556132d6565b828001600101855582156132d6579182015b828111156132d55782518255916020019190600101906132ba565b5b5090506132e39190613367565b5090565b828054600181600116156101000203166002900490600052602060002090601f016020900481019282601f1061332857805160ff1916838001178555613356565b82800160010185558215613356579182015b8281111561335557825182559160200191906001019061333a565b5b5090506133639190613367565b5090565b61338991905b8082111561338557600081600090555060010161336d565b5090565b90565b60008135905061339b8161472c565b92915050565b6000813590506133b081614743565b92915050565b600082601f8301126133c757600080fd5b81356133da6133d5826145b4565b614587565b915080825260208301602083018583830111156133f657600080fd5b6134018382846146bf565b50505092915050565b60008135905061341981614753565b92915050565b60006020828403121561343157600080fd5b600061343f8482850161338c565b91505092915050565b6000806040838503121561345b57600080fd5b60006134698582860161338c565b925050602061347a858286016133a1565b9150509250929050565b60008060006060848603121561349957600080fd5b60006134a78682870161338c565b935050602084013567ffffffffffffffff8111156134c457600080fd5b6134d0868287016133b6565b925050604084013567ffffffffffffffff8111156134ed57600080fd5b6134f9868287016133b6565b9150509250925092565b60006020828403121561351557600080fd5b6000613523848285016133a1565b91505092915050565b600080600080600060a0868803121561354457600080fd5b600086013567ffffffffffffffff81111561355e57600080fd5b61356a888289016133b6565b955050602086013567ffffffffffffffff81111561358757600080fd5b613593888289016133b6565b94505060406135a48882890161340a565b93505060606135b58882890161340a565b92505060806135c68882890161340a565b9150509295509295909350565b6000602082840312156135e557600080fd5b60006135f38482850161340a565b91505092915050565b6000806040838503121561360f57600080fd5b600061361d8582860161340a565b925050602083013567ffffffffffffffff81111561363a57600080fd5b613646858286016133b6565b9150509250929050565b6000806040838503121561366357600080fd5b60006136718582860161340a565b92505060206136828582860161340a565b9150509250929050565b6136958161462d565b82525050565b6136a48161463f565b82525050565b6136b38161469b565b82525050565b6136c2816146ad565b82525050565b6136d1816146ad565b82525050565b60006136e282614600565b6136ec818561461c565b93506136fc8185602086016146ce565b61370581614701565b840191505092915050565b600061371b826145f5565b613725818561460b565b93506137358185602086016146ce565b61373e81614701565b840191505092915050565b6000613754826145f5565b61375e818561461c565b935061376e8185602086016146ce565b61377781614701565b840191505092915050565b60008154600181166000811461379f57600181146137c557613809565b607f60028304166137b0818761461c565b955060ff198316865260208601935050613809565b600282046137d3818761461c565b95506137de856145e0565b60005b82811015613800578154818901526001820191506020810190506137e1565b80880195505050505b505092915050565b600061381e60198361461c565b91507f537570706c69657220416374696f6e20506572666f726d6564000000000000006000830152602082019050919050565b600061385e601d8361461c565b91507f4d616e75666163747572657220416374696f6e20506572666f726d65640000006000830152602082019050919050565b600061389e60208361461c565b91507f496e76616c696420726177206d6174657269616c20737570706c6965722049446000830152602082019050919050565b60006138de60198361461c565b91507f436f6e73756d657220416374696f6e20506572666f726d6564000000000000006000830152602082019050919050565b600061391e60198361461c565b91507f52657461696c657220416374696f6e20506572666f726d6564000000000000006000830152602082019050919050565b600061395e60218361461c565b91507f4d65646963696e65206e6f7420696e204d616e7566616374757265207374616760008301527f65000000000000000000000000000000000000000000000000000000000000006020830152604082019050919050565b60006139c4601d8361461c565b91507f496e76616c6964206164647265737320666f72206e65772061646d696e0000006000830152602082019050919050565b6000613a04601c8361461c565b91507f4469737472696275746f7220416374696f6e20506572666f726d6564000000006000830152602082019050919050565b6000613a4460178361461c565b91507f496e76616c6964206d616e7566616374757265722049440000000000000000006000830152602082019050919050565b6000613a8460268361461c565b91507f4f6e6c792072657461696c6572732063616e20706572666f726d20746869732060008301527f616374696f6e00000000000000000000000000000000000000000000000000006020830152604082019050919050565b6000613aea600c8361461c565b91507f496e76616c696420726f6c6500000000000000000000000000000000000000006000830152602082019050919050565b6000613b2a602a8361461c565b91507f4f6e6c79206d616e756661637475726572732063616e20706572666f726d207460008301527f68697320616374696f6e000000000000000000000000000000000000000000006020830152604082019050919050565b6000613b9060228361461c565b91507f4d65646963696e65206e6f7420696e20446973747269627574696f6e2073746160008301527f67650000000000000000000000000000000000000000000000000000000000006020830152604082019050919050565b6000613bf660138361461c565b91507f496e76616c69642072657461696c6572204944000000000000000000000000006000830152602082019050919050565b6000613c3660268361461c565b91507f4f6e6c7920636f6e73756d6572732063616e20706572666f726d20746869732060008301527f616374696f6e00000000000000000000000000000000000000000000000000006020830152604082019050919050565b6000613c9c60278361461c565b91507f4d65646963696e65206e6f7420696e205261774d6174657269616c537570706c60008301527f79207374616765000000000000000000000000000000000000000000000000006020830152604082019050919050565b6000613d0260198361461c565b91507f5573657220686173206e6f20726f6c652061737369676e6564000000000000006000830152602082019050919050565b6000613d4260178361461c565b91507f5573657220616c726561647920686173206120726f6c650000000000000000006000830152602082019050919050565b6000613d8260228361461c565b91507f4f6e6c792061646d696e2063616e20706572666f726d2074686973206163746960008301527f6f6e0000000000000000000000000000000000000000000000000000000000006020830152604082019050919050565b6000613de860268361461c565b91507f4f6e6c7920737570706c696572732063616e20706572666f726d20746869732060008301527f616374696f6e00000000000000000000000000000000000000000000000000006020830152604082019050919050565b6000613e4e60168361461c565b91507f496e76616c6964206469737472696275746f72204944000000000000000000006000830152602082019050919050565b6000613e8e60298361461c565b91507f4f6e6c79206469737472696275746f72732063616e20706572666f726d20746860008301527f697320616374696f6e00000000000000000000000000000000000000000000006020830152604082019050919050565b6000613ef4601c8361461c565b91507f4d65646963696e65206e6f7420696e2052657461696c207374616765000000006000830152602082019050919050565b60006080830160008301518482036000860152613f448282613710565b91505060208301518482036020860152613f5e8282613710565b9150506040830151613f736040860182614034565b506060830151613f866060860182614034565b508091505092915050565b600060e083016000830151613fa96000860182614034565b506020830151613fbc6020860182614034565b506040830151613fcf6040860182614034565b506060830151613fe26060860182614034565b5060808301518482036080860152613ffa8282613710565b91505060a083015184820360a08601526140148282613710565b91505060c083015161402960c08601826136b9565b508091505092915050565b61403d81614691565b82525050565b61404c81614691565b82525050565b6000602082019050614067600083018461368c565b92915050565b6000608082019050614082600083018761368c565b61408f6020830186614043565b81810360408301526140a18185613749565b905081810360608301526140b58184613749565b905095945050505050565b60006020820190506140d5600083018461369b565b92915050565b60006020820190506140f060008301846136aa565b92915050565b600060408201905061410b60008301856136aa565b818103602083015261411d8184613782565b90509392505050565b600060408201905061413b60008301846136aa565b818103602083015261414c81613811565b905092915050565b600060408201905061416960008301846136aa565b818103602083015261417a81613851565b905092915050565b600060408201905061419760008301846136aa565b81810360208301526141a8816138d1565b905092915050565b60006040820190506141c560008301846136aa565b81810360208301526141d681613911565b905092915050565b60006040820190506141f360008301846136aa565b8181036020830152614204816139f7565b905092915050565b600060208201905081810360008301526142268184613749565b905092915050565b6000602082019050818103600083015261424881846136d7565b905092915050565b6000602082019050818103600083015261426981613891565b9050919050565b6000602082019050818103600083015261428981613951565b9050919050565b600060208201905081810360008301526142a9816139b7565b9050919050565b600060208201905081810360008301526142c981613a37565b9050919050565b600060208201905081810360008301526142e981613a77565b9050919050565b6000602082019050818103600083015261430981613add565b9050919050565b6000602082019050818103600083015261432981613b1d565b9050919050565b6000602082019050818103600083015261434981613b83565b9050919050565b6000602082019050818103600083015261436981613be9565b9050919050565b6000602082019050818103600083015261438981613c29565b9050919050565b600060208201905081810360008301526143a981613c8f565b9050919050565b600060208201905081810360008301526143c981613cf5565b9050919050565b600060208201905081810360008301526143e981613d35565b9050919050565b6000602082019050818103600083015261440981613d75565b9050919050565b6000602082019050818103600083015261442981613ddb565b9050919050565b6000602082019050818103600083015261444981613e41565b9050919050565b6000602082019050818103600083015261446981613e81565b9050919050565b6000602082019050818103600083015261448981613ee7565b9050919050565b60006020820190506144a56000830184614043565b92915050565b60006040820190506144c06000830185614043565b6144cd60208301846136c8565b9392505050565b60006040820190506144e96000830185614043565b81810360208301526144fb81846136d7565b90509392505050565b60006060820190506145196000830186614043565b818103602083015261452b81856136d7565b905061453a6040830184614043565b949350505050565b60006060820190506145576000830186614043565b81810360208301526145698185613f27565b9050818103604083015261457d8184613f91565b9050949350505050565b6000604051905081810181811067ffffffffffffffff821117156145aa57600080fd5b8060405250919050565b600067ffffffffffffffff8211156145cb57600080fd5b601f19601f8301169050602081019050919050565b60008190508160005260206000209050919050565b600081519050919050565b600081519050919050565b600082825260208201905092915050565b600082825260208201905092915050565b600061463882614671565b9050919050565b60008115159050919050565b600081905061465982614712565b919050565b600081905061466c8261471f565b919050565b600073ffffffffffffffffffffffffffffffffffffffff82169050919050565b6000819050919050565b60006146a68261464b565b9050919050565b60006146b88261465e565b9050919050565b82818337600083830152505050565b60005b838110156146ec5780820151818401526020810190506146d1565b838111156146fb576000848401525b50505050565b6000601f19601f8301169050919050565b6006811061471c57fe5b50565b6006811061472957fe5b50565b6147358161462d565b811461474057600080fd5b50565b6006811061475057600080fd5b50565b61475c81614691565b811461476757600080fd5b5056fea365627a7a723158209d15d348b02cefea3870167fc9fd9f35a63c538593060585038d6d247d8454986c6578706572696d656e74616cf564736f6c63430005100040",
  "source": "// SPDX-License-Identifier: MIT\r\npragma solidity >=0.4.22 <0.9.0;\r\npragma experimental ABIEncoderV2; // Enable experimental ABI encoder\r\n\r\nimport \"./Roles.sol\";\r\n\r\ncontract SupplyChain is Roles {\r\n    address public Owner;\r\n\r\n    constructor() public {\r\n        Owner = msg.sender;\r\n    }\r\n\r\n    modifier onlyByOwner() {\r\n        require(msg.sender == Owner, \"Only owner can perform this action\");\r\n        _;\r\n    }\r\n\r\n    enum STAGE {\r\n        Init,\r\n        RawMaterialSupply,\r\n        Manufacture,\r\n        Distribution,\r\n        Retail,\r\n        Sold\r\n    }\r\n\r\n    struct RawMaterialSupplier {\r\n        address addr;\r\n        uint256 id;\r\n        string name;\r\n        string place;\r\n    }\r\n\r\n    struct Manufacturer {\r\n        address addr;\r\n        uint256 id;\r\n        string name;\r\n        string place;\r\n    }\r\n\r\n    struct Distributor {\r\n        address addr;\r\n        uint256 id;\r\n        string name;\r\n        string place;\r\n    }\r\n\r\n    struct Retailer {\r\n        address addr;\r\n        uint256 id;\r\n        string name;\r\n        string place;\r\n    }\r\n\r\n    struct MedicineDetails {\r\n        string name;\r\n        string description;\r\n        uint256 batchNumber;\r\n        uint256 expirationDate;\r\n    }\r\n\r\n    struct MedicineTracking {\r\n        uint256 RMSid;\r\n        uint256 MANid;\r\n        uint256 DISid;\r\n        uint256 RETid;\r\n        string qrCode; // QR code data\r\n        string storageConditions; // New field for storage conditions\r\n        STAGE stage;\r\n    }\r\n\r\n    struct Medicine {\r\n        uint256 id;\r\n        MedicineDetails details;\r\n        MedicineTracking tracking;\r\n    }\r\n\r\n    uint256 public rmsCtr = 0;\r\n    uint256 public manCtr = 0;\r\n    uint256 public disCtr = 0;\r\n    uint256 public retCtr = 0;\r\n    uint256 public medicineCtr = 0;\r\n\r\n    mapping(uint256 => RawMaterialSupplier) public RMS;\r\n    mapping(uint256 => Manufacturer) public MAN;\r\n    mapping(uint256 => Distributor) public DIS;\r\n    mapping(uint256 => Retailer) public RET;\r\n    mapping(uint256 => Medicine) public MedicineStock;\r\n\r\n    event MedicineAdded(uint256 id, string name, uint256 batchNumber);\r\n    event MedicineUpdated(uint256 id, STAGE stage);\r\n    event QRCodeGenerated(uint256 id, string qrCode);\r\n    event StorageConditionsUpdated(uint256 id, string conditions);\r\n\r\n    // Add raw material supplier\r\n    function addRMS(address _address, string memory _name, string memory _place) public onlyAdmin {\r\n        rmsCtr++;\r\n        RMS[rmsCtr] = RawMaterialSupplier(_address, rmsCtr, _name, _place);\r\n    }\r\n\r\n    // Add manufacturer\r\n    function addManufacturer(address _address, string memory _name, string memory _place) public onlyAdmin {\r\n        manCtr++;\r\n        MAN[manCtr] = Manufacturer(_address, manCtr, _name, _place);\r\n    }\r\n\r\n    // Add distributor\r\n    function addDistributor(address _address, string memory _name, string memory _place) public onlyAdmin {\r\n        disCtr++;\r\n        DIS[disCtr] = Distributor(_address, disCtr, _name, _place);\r\n    }\r\n\r\n    // Add retailer\r\n    function addRetailer(address _address, string memory _name, string memory _place) public onlyAdmin {\r\n        retCtr++;\r\n        RET[retCtr] = Retailer(_address, retCtr, _name, _place);\r\n    }\r\n\r\n    // Add medicine\r\n    function addMedicine(\r\n    string memory _name,\r\n    string memory _description,\r\n    uint256 _batchNumber,\r\n    uint256 _expirationDate,\r\n    uint256 _RMSid\r\n) public onlySupplier {\r\n    require(RMS[_RMSid].addr != address(0), \"Invalid raw material supplier ID\");\r\n\r\n    medicineCtr++;\r\n    MedicineStock[medicineCtr] = Medicine(\r\n        medicineCtr,\r\n        MedicineDetails(_name, _description, _batchNumber, _expirationDate),\r\n        MedicineTracking(_RMSid, 0, 0, 0, \"\", \"\", STAGE.RawMaterialSupply) // Set initial stage to RawMaterialSupply\r\n    );\r\n    emit MedicineAdded(medicineCtr, _name, _batchNumber);\r\n}\r\n\r\n    // Update manufacturing details\r\n    function updateManufacturingDetails(uint256 _id, uint256 _MANid) public onlyManufacturer {\r\n        require(MedicineStock[_id].tracking.stage == STAGE.RawMaterialSupply, \"Medicine not in RawMaterialSupply stage\");\r\n        require(MAN[_MANid].addr != address(0), \"Invalid manufacturer ID\");\r\n\r\n        MedicineStock[_id].tracking.MANid = _MANid;\r\n        MedicineStock[_id].tracking.stage = STAGE.Manufacture;\r\n        emit MedicineUpdated(_id, STAGE.Manufacture);\r\n    }\r\n\r\n    // Update distribution details\r\n    function updateDistributionDetails(uint256 _id, uint256 _DISid) public onlyDistributor {\r\n        require(MedicineStock[_id].tracking.stage == STAGE.Manufacture, \"Medicine not in Manufacture stage\");\r\n        require(DIS[_DISid].addr != address(0), \"Invalid distributor ID\");\r\n\r\n        MedicineStock[_id].tracking.DISid = _DISid;\r\n        MedicineStock[_id].tracking.stage = STAGE.Distribution;\r\n        emit MedicineUpdated(_id, STAGE.Distribution);\r\n    }\r\n\r\n    // Update retail details\r\n    function updateRetailDetails(uint256 _id, uint256 _RETid) public onlyRetailer {\r\n        require(MedicineStock[_id].tracking.stage == STAGE.Distribution, \"Medicine not in Distribution stage\");\r\n        require(RET[_RETid].addr != address(0), \"Invalid retailer ID\");\r\n\r\n        MedicineStock[_id].tracking.RETid = _RETid;\r\n        MedicineStock[_id].tracking.stage = STAGE.Retail;\r\n        emit MedicineUpdated(_id, STAGE.Retail);\r\n    }\r\n\r\n    // Mark medicine as sold\r\n    function markAsSold(uint256 _id) public onlyRetailer {\r\n        require(MedicineStock[_id].tracking.stage == STAGE.Retail, \"Medicine not in Retail stage\");\r\n\r\n        MedicineStock[_id].tracking.stage = STAGE.Sold;\r\n        emit MedicineUpdated(_id, STAGE.Sold);\r\n    }\r\n\r\n    // Update storage conditions\r\n    function updateStorageConditions(uint256 _id, string memory _conditions) public onlyDistributor {\r\n        require(MedicineStock[_id].tracking.stage == STAGE.Distribution, \"Medicine not in Distribution stage\");\r\n\r\n        MedicineStock[_id].tracking.storageConditions = _conditions;\r\n        emit StorageConditionsUpdated(_id, _conditions);\r\n    }\r\n\r\n    // Generate QR code (placeholder for integration)\r\n    function generateQRCode(uint256 _id, string memory _qrCode) public onlyAdmin {\r\n        MedicineStock[_id].tracking.qrCode = _qrCode;\r\n        emit QRCodeGenerated(_id, _qrCode);\r\n    }\r\n}",
  "sourcePath": "C:\\Users\\Sharma\\Desktop\\New folder\\Coffee Supply Chain\\New Supply Chain Blockchain\\contracts\\SupplyChain.sol",
  "compiler": {
    "name": "solc",
    "version": "0.5.16+commit.9c3226ce.Emscripten.clang"
  },
  "schemaVersion": "3.4.16",
  "updatedAt": "2025-03-21T05:11:39.205Z",
  "networkType": "ethereum",
  "devdoc": {
    "methods": {}
  },
  "userdoc": {
    "methods": {}
  }
}