{
  "contractName": "SupplyChain",
  "abi": [
    {
      "inputs": [],
      "stateMutability": "nonpayable",
      "type": "constructor"
    },
    {
      "anonymous": false,
      "inputs": [
        {
          "indexed": true,
          "internalType": "address",
          "name": "oldAdmin",
          "type": "address"
        },
        {
          "indexed": true,
          "internalType": "address",
          "name": "newAdmin",
          "type": "address"
        }
      ],
      "name": "AdminTransferred",
      "type": "event"
    },
    {
      "anonymous": false,
      "inputs": [
        {
          "indexed": false,
          "internalType": "uint256",
          "name": "id",
          "type": "uint256"
        },
        {
          "indexed": false,
          "internalType": "string",
          "name": "name",
          "type": "string"
        },
        {
          "indexed": false,
          "internalType": "uint256",
          "name": "batchNumber",
          "type": "uint256"
        }
      ],
      "name": "MedicineAdded",
      "type": "event"
    },
    {
      "anonymous": false,
      "inputs": [
        {
          "indexed": false,
          "internalType": "uint256",
          "name": "id",
          "type": "uint256"
        },
        {
          "indexed": false,
          "internalType": "enum SupplyChain.STAGE",
          "name": "stage",
          "type": "uint8"
        }
      ],
      "name": "MedicineUpdated",
      "type": "event"
    },
    {
      "anonymous": false,
      "inputs": [
        {
          "indexed": false,
          "internalType": "uint256",
          "name": "id",
          "type": "uint256"
        },
        {
          "indexed": false,
          "internalType": "string",
          "name": "qrCode",
          "type": "string"
        }
      ],
      "name": "QRCodeGenerated",
      "type": "event"
    },
    {
      "anonymous": false,
      "inputs": [
        {
          "indexed": true,
          "internalType": "address",
          "name": "user",
          "type": "address"
        },
        {
          "indexed": false,
          "internalType": "enum Roles.Role",
          "name": "role",
          "type": "uint8"
        },
        {
          "indexed": false,
          "internalType": "string",
          "name": "action",
          "type": "string"
        }
      ],
      "name": "RoleActionPerformed",
      "type": "event"
    },
    {
      "anonymous": false,
      "inputs": [
        {
          "indexed": true,
          "internalType": "address",
          "name": "user",
          "type": "address"
        },
        {
          "indexed": false,
          "internalType": "enum Roles.Role",
          "name": "role",
          "type": "uint8"
        },
        {
          "indexed": false,
          "internalType": "string",
          "name": "description",
          "type": "string"
        }
      ],
      "name": "RoleAssigned",
      "type": "event"
    },
    {
      "anonymous": false,
      "inputs": [
        {
          "indexed": true,
          "internalType": "address",
          "name": "user",
          "type": "address"
        },
        {
          "indexed": false,
          "internalType": "enum Roles.Role",
          "name": "role",
          "type": "uint8"
        },
        {
          "indexed": false,
          "internalType": "string",
          "name": "description",
          "type": "string"
        }
      ],
      "name": "RoleRevoked",
      "type": "event"
    },
    {
      "anonymous": false,
      "inputs": [
        {
          "indexed": false,
          "internalType": "uint256",
          "name": "id",
          "type": "uint256"
        },
        {
          "indexed": false,
          "internalType": "string",
          "name": "conditions",
          "type": "string"
        }
      ],
      "name": "StorageConditionsUpdated",
      "type": "event"
    },
    {
      "inputs": [
        {
          "internalType": "uint256",
          "name": "",
          "type": "uint256"
        }
      ],
      "name": "DIS",
      "outputs": [
        {
          "internalType": "address",
          "name": "addr",
          "type": "address"
        },
        {
          "internalType": "uint256",
          "name": "id",
          "type": "uint256"
        },
        {
          "internalType": "string",
          "name": "name",
          "type": "string"
        },
        {
          "internalType": "string",
          "name": "place",
          "type": "string"
        }
      ],
      "stateMutability": "view",
      "type": "function"
    },
    {
      "inputs": [
        {
          "internalType": "uint256",
          "name": "",
          "type": "uint256"
        }
      ],
      "name": "MAN",
      "outputs": [
        {
          "internalType": "address",
          "name": "addr",
          "type": "address"
        },
        {
          "internalType": "uint256",
          "name": "id",
          "type": "uint256"
        },
        {
          "internalType": "string",
          "name": "name",
          "type": "string"
        },
        {
          "internalType": "string",
          "name": "place",
          "type": "string"
        }
      ],
      "stateMutability": "view",
      "type": "function"
    },
    {
      "inputs": [
        {
          "internalType": "uint256",
          "name": "",
          "type": "uint256"
        }
      ],
      "name": "MedicineStock",
      "outputs": [
        {
          "internalType": "uint256",
          "name": "id",
          "type": "uint256"
        },
        {
          "components": [
            {
              "internalType": "string",
              "name": "name",
              "type": "string"
            },
            {
              "internalType": "string",
              "name": "description",
              "type": "string"
            },
            {
              "internalType": "uint256",
              "name": "batchNumber",
              "type": "uint256"
            },
            {
              "internalType": "uint256",
              "name": "expirationDate",
              "type": "uint256"
            }
          ],
          "internalType": "struct SupplyChain.MedicineDetails",
          "name": "details",
          "type": "tuple"
        },
        {
          "components": [
            {
              "internalType": "uint256",
              "name": "RMSid",
              "type": "uint256"
            },
            {
              "internalType": "uint256",
              "name": "MANid",
              "type": "uint256"
            },
            {
              "internalType": "uint256",
              "name": "DISid",
              "type": "uint256"
            },
            {
              "internalType": "uint256",
              "name": "RETid",
              "type": "uint256"
            },
            {
              "internalType": "string",
              "name": "qrCode",
              "type": "string"
            },
            {
              "internalType": "string",
              "name": "storageConditions",
              "type": "string"
            },
            {
              "internalType": "enum SupplyChain.STAGE",
              "name": "stage",
              "type": "uint8"
            }
          ],
          "internalType": "struct SupplyChain.MedicineTracking",
          "name": "tracking",
          "type": "tuple"
        }
      ],
      "stateMutability": "view",
      "type": "function"
    },
    {
      "inputs": [],
      "name": "Owner",
      "outputs": [
        {
          "internalType": "address",
          "name": "",
          "type": "address"
        }
      ],
      "stateMutability": "view",
      "type": "function"
    },
    {
      "inputs": [
        {
          "internalType": "uint256",
          "name": "",
          "type": "uint256"
        }
      ],
      "name": "RET",
      "outputs": [
        {
          "internalType": "address",
          "name": "addr",
          "type": "address"
        },
        {
          "internalType": "uint256",
          "name": "id",
          "type": "uint256"
        },
        {
          "internalType": "string",
          "name": "name",
          "type": "string"
        },
        {
          "internalType": "string",
          "name": "place",
          "type": "string"
        }
      ],
      "stateMutability": "view",
      "type": "function"
    },
    {
      "inputs": [
        {
          "internalType": "uint256",
          "name": "",
          "type": "uint256"
        }
      ],
      "name": "RMS",
      "outputs": [
        {
          "internalType": "address",
          "name": "addr",
          "type": "address"
        },
        {
          "internalType": "uint256",
          "name": "id",
          "type": "uint256"
        },
        {
          "internalType": "string",
          "name": "name",
          "type": "string"
        },
        {
          "internalType": "string",
          "name": "place",
          "type": "string"
        }
      ],
      "stateMutability": "view",
      "type": "function"
    },
    {
      "inputs": [],
      "name": "admin",
      "outputs": [
        {
          "internalType": "address",
          "name": "",
          "type": "address"
        }
      ],
      "stateMutability": "view",
      "type": "function"
    },
    {
      "inputs": [
        {
          "internalType": "address",
          "name": "_user",
          "type": "address"
        },
        {
          "internalType": "enum Roles.Role",
          "name": "_role",
          "type": "uint8"
        }
      ],
      "name": "assignRole",
      "outputs": [],
      "stateMutability": "nonpayable",
      "type": "function"
    },
    {
      "inputs": [],
      "name": "consumerAction",
      "outputs": [],
      "stateMutability": "nonpayable",
      "type": "function"
    },
    {
      "inputs": [],
      "name": "disCtr",
      "outputs": [
        {
          "internalType": "uint256",
          "name": "",
          "type": "uint256"
        }
      ],
      "stateMutability": "view",
      "type": "function"
    },
    {
      "inputs": [],
      "name": "distributorAction",
      "outputs": [],
      "stateMutability": "nonpayable",
      "type": "function"
    },
    {
      "inputs": [
        {
          "internalType": "enum Roles.Role",
          "name": "_role",
          "type": "uint8"
        }
      ],
      "name": "getRoleDescription",
      "outputs": [
        {
          "internalType": "string",
          "name": "",
          "type": "string"
        }
      ],
      "stateMutability": "view",
      "type": "function"
    },
    {
      "inputs": [
        {
          "internalType": "address",
          "name": "_user",
          "type": "address"
        }
      ],
      "name": "getUserRole",
      "outputs": [
        {
          "internalType": "enum Roles.Role",
          "name": "",
          "type": "uint8"
        }
      ],
      "stateMutability": "view",
      "type": "function"
    },
    {
      "inputs": [
        {
          "internalType": "address",
          "name": "_user",
          "type": "address"
        },
        {
          "internalType": "enum Roles.Role",
          "name": "_role",
          "type": "uint8"
        }
      ],
      "name": "hasRole",
      "outputs": [
        {
          "internalType": "bool",
          "name": "",
          "type": "bool"
        }
      ],
      "stateMutability": "view",
      "type": "function"
    },
    {
      "inputs": [],
      "name": "manCtr",
      "outputs": [
        {
          "internalType": "uint256",
          "name": "",
          "type": "uint256"
        }
      ],
      "stateMutability": "view",
      "type": "function"
    },
    {
      "inputs": [],
      "name": "manufacturerAction",
      "outputs": [],
      "stateMutability": "nonpayable",
      "type": "function"
    },
    {
      "inputs": [],
      "name": "medicineCtr",
      "outputs": [
        {
          "internalType": "uint256",
          "name": "",
          "type": "uint256"
        }
      ],
      "stateMutability": "view",
      "type": "function"
    },
    {
      "inputs": [],
      "name": "retCtr",
      "outputs": [
        {
          "internalType": "uint256",
          "name": "",
          "type": "uint256"
        }
      ],
      "stateMutability": "view",
      "type": "function"
    },
    {
      "inputs": [],
      "name": "retailerAction",
      "outputs": [],
      "stateMutability": "nonpayable",
      "type": "function"
    },
    {
      "inputs": [
        {
          "internalType": "address",
          "name": "_user",
          "type": "address"
        }
      ],
      "name": "revokeRole",
      "outputs": [],
      "stateMutability": "nonpayable",
      "type": "function"
    },
    {
      "inputs": [],
      "name": "rmsCtr",
      "outputs": [
        {
          "internalType": "uint256",
          "name": "",
          "type": "uint256"
        }
      ],
      "stateMutability": "view",
      "type": "function"
    },
    {
      "inputs": [
        {
          "internalType": "uint256",
          "name": "",
          "type": "uint256"
        }
      ],
      "name": "roleDescriptions",
      "outputs": [
        {
          "internalType": "string",
          "name": "",
          "type": "string"
        }
      ],
      "stateMutability": "view",
      "type": "function"
    },
    {
      "inputs": [],
      "name": "supplierAction",
      "outputs": [],
      "stateMutability": "nonpayable",
      "type": "function"
    },
    {
      "inputs": [
        {
          "internalType": "address",
          "name": "_newAdmin",
          "type": "address"
        }
      ],
      "name": "transferAdmin",
      "outputs": [],
      "stateMutability": "nonpayable",
      "type": "function"
    },
    {
      "inputs": [
        {
          "internalType": "address",
          "name": "",
          "type": "address"
        }
      ],
      "name": "userRoles",
      "outputs": [
        {
          "internalType": "enum Roles.Role",
          "name": "",
          "type": "uint8"
        }
      ],
      "stateMutability": "view",
      "type": "function"
    },
    {
      "inputs": [
        {
          "internalType": "address",
          "name": "_address",
          "type": "address"
        },
        {
          "internalType": "string",
          "name": "_name",
          "type": "string"
        },
        {
          "internalType": "string",
          "name": "_place",
          "type": "string"
        }
      ],
      "name": "addRMS",
      "outputs": [],
      "stateMutability": "nonpayable",
      "type": "function"
    },
    {
      "inputs": [
        {
          "internalType": "address",
          "name": "_address",
          "type": "address"
        },
        {
          "internalType": "string",
          "name": "_name",
          "type": "string"
        },
        {
          "internalType": "string",
          "name": "_place",
          "type": "string"
        }
      ],
      "name": "addManufacturer",
      "outputs": [],
      "stateMutability": "nonpayable",
      "type": "function"
    },
    {
      "inputs": [
        {
          "internalType": "address",
          "name": "_address",
          "type": "address"
        },
        {
          "internalType": "string",
          "name": "_name",
          "type": "string"
        },
        {
          "internalType": "string",
          "name": "_place",
          "type": "string"
        }
      ],
      "name": "addDistributor",
      "outputs": [],
      "stateMutability": "nonpayable",
      "type": "function"
    },
    {
      "inputs": [
        {
          "internalType": "address",
          "name": "_address",
          "type": "address"
        },
        {
          "internalType": "string",
          "name": "_name",
          "type": "string"
        },
        {
          "internalType": "string",
          "name": "_place",
          "type": "string"
        }
      ],
      "name": "addRetailer",
      "outputs": [],
      "stateMutability": "nonpayable",
      "type": "function"
    },
    {
      "inputs": [
        {
          "internalType": "uint256",
          "name": "_id",
          "type": "uint256"
        }
      ],
      "name": "getMedicineDetails",
      "outputs": [
        {
          "components": [
            {
              "internalType": "uint256",
              "name": "id",
              "type": "uint256"
            },
            {
              "components": [
                {
                  "internalType": "string",
                  "name": "name",
                  "type": "string"
                },
                {
                  "internalType": "string",
                  "name": "description",
                  "type": "string"
                },
                {
                  "internalType": "uint256",
                  "name": "batchNumber",
                  "type": "uint256"
                },
                {
                  "internalType": "uint256",
                  "name": "expirationDate",
                  "type": "uint256"
                }
              ],
              "internalType": "struct SupplyChain.MedicineDetails",
              "name": "details",
              "type": "tuple"
            },
            {
              "components": [
                {
                  "internalType": "uint256",
                  "name": "RMSid",
                  "type": "uint256"
                },
                {
                  "internalType": "uint256",
                  "name": "MANid",
                  "type": "uint256"
                },
                {
                  "internalType": "uint256",
                  "name": "DISid",
                  "type": "uint256"
                },
                {
                  "internalType": "uint256",
                  "name": "RETid",
                  "type": "uint256"
                },
                {
                  "internalType": "string",
                  "name": "qrCode",
                  "type": "string"
                },
                {
                  "internalType": "string",
                  "name": "storageConditions",
                  "type": "string"
                },
                {
                  "internalType": "enum SupplyChain.STAGE",
                  "name": "stage",
                  "type": "uint8"
                }
              ],
              "internalType": "struct SupplyChain.MedicineTracking",
              "name": "tracking",
              "type": "tuple"
            }
          ],
          "internalType": "struct SupplyChain.Medicine",
          "name": "",
          "type": "tuple"
        }
      ],
      "stateMutability": "view",
      "type": "function"
    },
    {
      "inputs": [
        {
          "internalType": "string",
          "name": "_name",
          "type": "string"
        },
        {
          "internalType": "string",
          "name": "_description",
          "type": "string"
        },
        {
          "internalType": "uint256",
          "name": "_batchNumber",
          "type": "uint256"
        },
        {
          "internalType": "uint256",
          "name": "_expirationDate",
          "type": "uint256"
        },
        {
          "internalType": "uint256",
          "name": "_RMSid",
          "type": "uint256"
        }
      ],
      "name": "addMedicine",
      "outputs": [],
      "stateMutability": "nonpayable",
      "type": "function"
    },
    {
      "inputs": [
        {
          "internalType": "uint256",
          "name": "_id",
          "type": "uint256"
        },
        {
          "internalType": "uint256",
          "name": "_MANid",
          "type": "uint256"
        }
      ],
      "name": "updateManufacturingDetails",
      "outputs": [],
      "stateMutability": "nonpayable",
      "type": "function"
    },
    {
      "inputs": [
        {
          "internalType": "uint256",
          "name": "_id",
          "type": "uint256"
        },
        {
          "internalType": "uint256",
          "name": "_DISid",
          "type": "uint256"
        }
      ],
      "name": "updateDistributionDetails",
      "outputs": [],
      "stateMutability": "nonpayable",
      "type": "function"
    },
    {
      "inputs": [
        {
          "internalType": "uint256",
          "name": "_id",
          "type": "uint256"
        },
        {
          "internalType": "uint256",
          "name": "_RETid",
          "type": "uint256"
        }
      ],
      "name": "updateRetailDetails",
      "outputs": [],
      "stateMutability": "nonpayable",
      "type": "function"
    },
    {
      "inputs": [
        {
          "internalType": "uint256",
          "name": "_id",
          "type": "uint256"
        }
      ],
      "name": "markAsSold",
      "outputs": [],
      "stateMutability": "nonpayable",
      "type": "function"
    },
    {
      "inputs": [
        {
          "internalType": "uint256",
          "name": "_id",
          "type": "uint256"
        },
        {
          "internalType": "string",
          "name": "_conditions",
          "type": "string"
        }
      ],
      "name": "updateStorageConditions",
      "outputs": [],
      "stateMutability": "nonpayable",
      "type": "function"
    },
    {
      "inputs": [
        {
          "internalType": "uint256",
          "name": "_id",
          "type": "uint256"
        },
        {
          "internalType": "string",
          "name": "_qrCode",
          "type": "string"
        }
      ],
      "name": "generateQRCode",
      "outputs": [],
      "stateMutability": "nonpayable",
      "type": "function"
    }
  ],
  "bytecode": "0x60806040525f6004555f6005555f6006555f6007555f60085534801562000024575f80fd5b505f80546001600160a01b0319163317815560408051808201909152601081526f139bc8149bdb1948105cdcda59db995960821b60208083019190915291805260029091527fac33ff75c19e70fe83507db0d683fd3465c996598dc972688b7ace676c89077b906200009790826200032e565b5060408051808201909152601581527f526177204d6174657269616c20537570706c696572000000000000000000000060208083019190915260015f52600290527fe90b7bceb6e7df5418fb78d8ee546e97c83a08bbccc01a0644d599ccd2a7c2e0906200010690826200032e565b5060408051808201909152600c81526b26b0b73ab330b1ba3ab932b960a11b60208083019190915260025f81905290527f679795a0195a1b76cdebb7c51d74e058aee92919b8c3389af86ef24535e8a28c906200016490826200032e565b5060408051808201909152600b81526a2234b9ba3934b13aba37b960a91b60208083019190915260035f52600290527f88601476d11616a71c5be67555bd1dff4b1cbf21533d2669b768b61518cfe1c390620001c190826200032e565b506040805180820190915260088152672932ba30b4b632b960c11b60208083019190915260045f52600290527fee60d0579bcffd98e668647d59fec1ff86a7fb340ce572e844f234ae73a6918f906200021b90826200032e565b5060408051808201909152600881526721b7b739bab6b2b960c11b60208083019190915260055f52600290527fb98b78633099fa36ed8b8680c4f8092689e1e04080eb9cbb077ca38a14d7e384906200027590826200032e565b50600380546001600160a01b03191633179055620003f6565b634e487b7160e01b5f52604160045260245ffd5b600181811c90821680620002b757607f821691505b602082108103620002d657634e487b7160e01b5f52602260045260245ffd5b50919050565b601f82111562000329575f81815260208120601f850160051c81016020861015620003045750805b601f850160051c820191505b81811015620003255782815560010162000310565b5050505b505050565b81516001600160401b038111156200034a576200034a6200028e565b62000362816200035b8454620002a2565b84620002dc565b602080601f83116001811462000398575f8415620003805750858301515b5f19600386901b1c1916600185901b17855562000325565b5f85815260208120601f198616915b82811015620003c857888601518255948401946001909101908401620003a7565b5085821015620003e657878501515f19600388901b60f8161c191681555b5050505050600190811b01905550565b612b3380620004045f395ff3fe608060405234801561000f575f80fd5b506004361061021e575f3560e01c806374d5e1001161012a578063a95f29d9116100b4578063d2e3250f11610079578063d2e3250f146104c2578063dd286398146104d5578063eb1a06b5146104de578063eef5cb4014610500578063f851a44014610513575f80fd5b8063a95f29d91461046b578063b4a99a4e14610474578063b8adb6291461049f578063c61fbebd146104a7578063cc403069146104af575f80fd5b806380e52e3f116100fa57806380e52e3f146103fc578063857ddb041461040f57806395a8c58d146104225780639b0773c3146104455780639b22cc8c14610458575f80fd5b806374d5e100146103b657806375829def146103d85780637cfc455c146103eb5780637e43d94d146103f3575f80fd5b80632f5f957c116101ab57806359bf286f1161017b57806359bf286f146103575780635f9f07f91461036a578063630a195b1461037d5780636a992c9f146103905780636bfd79af146103a3575f80fd5b80632f5f957c1461031357806330c2d3e614610333578063438e9c4d1461034657806354bf57311461034f575f80fd5b80632931a108116101f15780632931a108146102a05780632a4af440146102b35780632b0187ac146102c65780632b70b08d146102e95780632bdb2e6b146102fc575f80fd5b80630b2e0fb3146102225780631385be65146102375780631791fdd1146102605780632782085114610268575b5f80fd5b6102356102303660046120a5565b610525565b005b61024a6102453660046120c5565b61065d565b604051610257919061211f565b60405180910390f35b6102356106f4565b610293610276366004612153565b6001600160a01b03165f9081526001602052604090205460ff1690565b604051610257919061219f565b6102356102ae3660046120c5565b610767565b6102356102c136600461224f565b610865565b6102d96102d43660046120c5565b61092c565b60405161025794939291906122be565b6102356102f736600461224f565b610a6a565b61030560065481565b604051908152602001610257565b6103266103213660046120c5565b610b14565b60405161025791906123c6565b61024a61034136600461241f565b610e76565b61030560055481565b610235610f28565b6102d96103653660046120c5565b610f91565b610235610378366004612438565b610fc2565b61023561038b3660046124b1565b61123b565b61023561039e36600461224f565b6113d0565b6102356103b13660046124e2565b61147a565b6102936103c4366004612153565b60016020525f908152604090205460ff1681565b6102356103e6366004612153565b6114ef565b6102356115c7565b61030560075481565b61023561040a366004612153565b611630565b61023561041d36600461224f565b611731565b6104356104303660046124b1565b6117db565b6040519015158152602001610257565b6102356104533660046124e2565b611822565b6102356104663660046120a5565b6118f4565b61030560085481565b600354610487906001600160a01b031681565b6040516001600160a01b039091168152602001610257565b610235611a61565b610235611aca565b6102d96104bd3660046120c5565b611b72565b6102356104d03660046120a5565b611ba3565b61030560045481565b6104f16104ec3660046120c5565b611d03565b60405161025793929190612526565b6102d961050e3660046120c5565b611fe5565b5f54610487906001600160a01b031681565b6004335f9081526001602052604090205460ff16600581111561054a5761054a61216c565b146105705760405162461bcd60e51b81526004016105679061255a565b60405180910390fd5b60035f838152600d60205260409020600b015460ff1660058111156105975761059761216c565b146105b45760405162461bcd60e51b8152600401610567906125a0565b5f818152600c60205260409020546001600160a01b031661060d5760405162461bcd60e51b8152602060048201526013602482015272125b9d985b1a59081c995d185a5b195c881251606a1b6044820152606401610567565b5f828152600d60205260409081902060088101839055600b01805460ff1916600490811790915590515f80516020612abe83398151915291610651918591906125e2565b60405180910390a15050565b60026020525f908152604090208054610675906125ff565b80601f01602080910402602001604051908101604052809291908181526020018280546106a1906125ff565b80156106ec5780601f106106c3576101008083540402835291602001916106ec565b820191905f5260205f20905b8154815290600101906020018083116106cf57829003601f168201915b505050505081565b6002335f9081526001602052604090205460ff1660058111156107195761071961216c565b146107365760405162461bcd60e51b815260040161056790612637565b336001600160a01b03165f80516020612ade833981519152600260405161075d9190612681565b60405180910390a2565b6004335f9081526001602052604090205460ff16600581111561078c5761078c61216c565b146107a95760405162461bcd60e51b81526004016105679061255a565b60045f828152600d60205260409020600b015460ff1660058111156107d0576107d061216c565b1461081d5760405162461bcd60e51b815260206004820152601c60248201527f4d65646963696e65206e6f7420696e2052657461696c207374616765000000006044820152606401610567565b5f818152600d602052604090819020600b01805460ff1916600590811790915590515f80516020612abe8339815191529161085a918491906125e2565b60405180910390a150565b5f546001600160a01b0316331461088e5760405162461bcd60e51b8152600401610567906126c8565b60068054905f61089d8361270a565b9091555050604080516080810182526001600160a01b0385811682526006546020808401828152848601888152606086018890525f938452600b90925294909120835181546001600160a01b0319169316929092178255925160018201559151909190600282019061090f9082612778565b50606082015160038201906109249082612778565b505050505050565b600b6020525f90815260409020805460018201546002830180546001600160a01b0390931693919261095d906125ff565b80601f0160208091040260200160405190810160405280929190818152602001828054610989906125ff565b80156109d45780601f106109ab576101008083540402835291602001916109d4565b820191905f5260205f20905b8154815290600101906020018083116109b757829003601f168201915b5050505050908060030180546109e9906125ff565b80601f0160208091040260200160405190810160405280929190818152602001828054610a15906125ff565b8015610a605780601f10610a3757610100808354040283529160200191610a60565b820191905f5260205f20905b815481529060010190602001808311610a4357829003601f168201915b5050505050905084565b5f546001600160a01b03163314610a935760405162461bcd60e51b8152600401610567906126c8565b60048054905f610aa28361270a565b9091555050604080516080810182526001600160a01b0385811682526004546020808401828152848601888152606086018890525f938452600990925294909120835181546001600160a01b0319169316929092178255925160018201559151909190600282019061090f9082612778565b610b1c612016565b5f828152600d60205260408120549003610b785760405162461bcd60e51b815260206004820152601760248201527f4d65646963696e6520646f6573206e6f742065786973740000000000000000006044820152606401610567565b600d5f8381526020019081526020015f206040518060600160405290815f8201548152602001600182016040518060800160405290815f82018054610bbc906125ff565b80601f0160208091040260200160405190810160405280929190818152602001828054610be8906125ff565b8015610c335780601f10610c0a57610100808354040283529160200191610c33565b820191905f5260205f20905b815481529060010190602001808311610c1657829003601f168201915b50505050508152602001600182018054610c4c906125ff565b80601f0160208091040260200160405190810160405280929190818152602001828054610c78906125ff565b8015610cc35780601f10610c9a57610100808354040283529160200191610cc3565b820191905f5260205f20905b815481529060010190602001808311610ca657829003601f168201915b50505050508152602001600282015481526020016003820154815250508152602001600582016040518060e00160405290815f8201548152602001600182015481526020016002820154815260200160038201548152602001600482018054610d2b906125ff565b80601f0160208091040260200160405190810160405280929190818152602001828054610d57906125ff565b8015610da25780601f10610d7957610100808354040283529160200191610da2565b820191905f5260205f20905b815481529060010190602001808311610d8557829003601f168201915b50505050508152602001600582018054610dbb906125ff565b80601f0160208091040260200160405190810160405280929190818152602001828054610de7906125ff565b8015610e325780601f10610e0957610100808354040283529160200191610e32565b820191905f5260205f20905b815481529060010190602001808311610e1557829003601f168201915b5050509183525050600682015460209091019060ff166005811115610e5957610e5961216c565b6005811115610e6a57610e6a61216c565b90525090525092915050565b606060025f836005811115610e8d57610e8d61216c565b81526020019081526020015f208054610ea5906125ff565b80601f0160208091040260200160405190810160405280929190818152602001828054610ed1906125ff565b8015610f1c5780601f10610ef357610100808354040283529160200191610f1c565b820191905f5260205f20905b815481529060010190602001808311610eff57829003601f168201915b50505050509050919050565b6003335f9081526001602052604090205460ff166005811115610f4d57610f4d61216c565b14610f6a5760405162461bcd60e51b815260040161056790612834565b336001600160a01b03165f80516020612ade833981519152600360405161075d919061287d565b600c6020525f90815260409020805460018201546002830180546001600160a01b0390931693919261095d906125ff565b6001335f9081526001602052604090205460ff166005811115610fe757610fe761216c565b146110045760405162461bcd60e51b8152600401610567906128c4565b5f818152600960205260409020546001600160a01b03166110675760405162461bcd60e51b815260206004820181905260248201527f496e76616c696420726177206d6174657269616c20737570706c6965722049446044820152606401610567565b60088054905f6110768361270a565b91905055506040518060600160405280600854815260200160405180608001604052808881526020018781526020018681526020018581525081526020016040518060e001604052808481526020015f81526020015f81526020015f815260200160405180602001604052805f815250815260200160405180602001604052805f8152508152602001600160058111156111125761111261216c565b905290526008545f908152600d6020908152604090912082518155908201518051600183019081906111449082612778565b50602082015160018201906111599082612778565b50604082015181600201556060820151816003015550506040820151816005015f820151815f015560208201518160010155604082015181600201556060820151816003015560808201518160040190816111b49190612778565b5060a082015160058201906111c99082612778565b5060c082015160068201805460ff191660018360058111156111ed576111ed61216c565b021790555050509050507fd19ed2997779bdd7c0c657fd2a1bbcf4e3f642a49b129045326169d1f418f375600854868560405161122c9392919061290a565b60405180910390a15050505050565b5f546001600160a01b031633146112645760405162461bcd60e51b8152600401610567906126c8565b5f8160058111156112775761127761216c565b036112b35760405162461bcd60e51b815260206004820152600c60248201526b496e76616c696420726f6c6560a01b6044820152606401610567565b6001600160a01b0382165f9081526001602052604081205460ff1660058111156112df576112df61216c565b1461132c5760405162461bcd60e51b815260206004820152601760248201527f5573657220616c726561647920686173206120726f6c650000000000000000006044820152606401610567565b6001600160a01b0382165f9081526001602081905260409091208054839260ff19909116908360058111156113635761136361216c565b0217905550816001600160a01b03167f6f9e8382effc1f2659a04b480fc00e03e9ea704a05c90d74db22a5fb12ee46af8260025f8560058111156113a9576113a961216c565b81526020019081526020015f206040516113c4929190612932565b60405180910390a25050565b5f546001600160a01b031633146113f95760405162461bcd60e51b8152600401610567906126c8565b60058054905f6114088361270a565b9091555050604080516080810182526001600160a01b0385811682526005546020808401828152848601888152606086018890525f938452600a90925294909120835181546001600160a01b0319169316929092178255925160018201559151909190600282019061090f9082612778565b5f546001600160a01b031633146114a35760405162461bcd60e51b8152600401610567906126c8565b5f828152600d602052604090206009016114bd8282612778565b507fe041a16e704f07ecadcc3a2adc4fee6dc8f69789a538d1ebaaed3ca699e3f96d82826040516106519291906129c8565b5f546001600160a01b031633146115185760405162461bcd60e51b8152600401610567906126c8565b6001600160a01b03811661156e5760405162461bcd60e51b815260206004820152601d60248201527f496e76616c6964206164647265737320666f72206e65772061646d696e0000006044820152606401610567565b5f80546040516001600160a01b03808516939216917ff8ccb027dfcd135e000e9d45e6cc2d662578a8825d4c45b5e32e0adf67e79ec691a35f80546001600160a01b0319166001600160a01b0392909216919091179055565b6004335f9081526001602052604090205460ff1660058111156115ec576115ec61216c565b146116095760405162461bcd60e51b81526004016105679061255a565b336001600160a01b03165f80516020612ade833981519152600460405161075d91906129e8565b5f546001600160a01b031633146116595760405162461bcd60e51b8152600401610567906126c8565b6001600160a01b0381165f9081526001602052604081205460ff1660058111156116855761168561216c565b036116d25760405162461bcd60e51b815260206004820152601960248201527f5573657220686173206e6f20726f6c652061737369676e6564000000000000006044820152606401610567565b6001600160a01b0381165f818152600160205260408120805460ff19811690915560ff1691907f285c4fb5c4d71e57b223e637eb34c928bbd52dc4435f3afeead12e99343c967a9083906002908260058111156113a9576113a961216c565b5f546001600160a01b0316331461175a5760405162461bcd60e51b8152600401610567906126c8565b60078054905f6117698361270a565b9091555050604080516080810182526001600160a01b0385811682526007546020808401828152848601888152606086018890525f938452600c90925294909120835181546001600160a01b0319169316929092178255925160018201559151909190600282019061090f9082612778565b5f8160058111156117ee576117ee61216c565b6001600160a01b0384165f9081526001602052604090205460ff16600581111561181a5761181a61216c565b149392505050565b6003335f9081526001602052604090205460ff1660058111156118475761184761216c565b146118645760405162461bcd60e51b815260040161056790612834565b60035f838152600d60205260409020600b015460ff16600581111561188b5761188b61216c565b146118a85760405162461bcd60e51b8152600401610567906125a0565b5f828152600d60205260409020600a016118c28282612778565b507fa3f59e66036fc8ebb5d92f08a18ad4a996baa1887ac89a6df1fd87aea976ee7782826040516106519291906129c8565b6002335f9081526001602052604090205460ff1660058111156119195761191961216c565b146119365760405162461bcd60e51b815260040161056790612637565b60015f838152600d60205260409020600b015460ff16600581111561195d5761195d61216c565b146119ba5760405162461bcd60e51b815260206004820152602760248201527f4d65646963696e65206e6f7420696e205261774d6174657269616c537570706c6044820152667920737461676560c81b6064820152608401610567565b5f818152600a60205260409020546001600160a01b0316611a1d5760405162461bcd60e51b815260206004820152601760248201527f496e76616c6964206d616e7566616374757265722049440000000000000000006044820152606401610567565b5f828152600d60205260409081902060068101839055600b01805460ff1916600290811790915590515f80516020612abe83398151915291610651918591906125e2565b6001335f9081526001602052604090205460ff166005811115611a8657611a8661216c565b14611aa35760405162461bcd60e51b8152600401610567906128c4565b336001600160a01b03165f80516020612ade833981519152600160405161075d9190612a2f565b6005335f9081526001602052604090205460ff166005811115611aef57611aef61216c565b14611b4b5760405162461bcd60e51b815260206004820152602660248201527f4f6e6c7920636f6e73756d6572732063616e20706572666f726d20746869732060448201526530b1ba34b7b760d11b6064820152608401610567565b336001600160a01b03165f80516020612ade833981519152600560405161075d9190612a76565b600a6020525f90815260409020805460018201546002830180546001600160a01b0390931693919261095d906125ff565b6003335f9081526001602052604090205460ff166005811115611bc857611bc861216c565b14611be55760405162461bcd60e51b815260040161056790612834565b60025f838152600d60205260409020600b015460ff166005811115611c0c57611c0c61216c565b14611c635760405162461bcd60e51b815260206004820152602160248201527f4d65646963696e65206e6f7420696e204d616e756661637475726520737461676044820152606560f81b6064820152608401610567565b5f818152600b60205260409020546001600160a01b0316611cbf5760405162461bcd60e51b8152602060048201526016602482015275125b9d985b1a5908191a5cdd1c9a589d5d1bdc88125160521b6044820152606401610567565b5f828152600d60205260409081902060078101839055600b01805460ff1916600390811790915590515f80516020612abe83398151915291610651918591906125e2565b600d6020525f908152604090819020805482516080810190935260018201805491939182908290611d33906125ff565b80601f0160208091040260200160405190810160405280929190818152602001828054611d5f906125ff565b8015611daa5780601f10611d8157610100808354040283529160200191611daa565b820191905f5260205f20905b815481529060010190602001808311611d8d57829003601f168201915b50505050508152602001600182018054611dc3906125ff565b80601f0160208091040260200160405190810160405280929190818152602001828054611def906125ff565b8015611e3a5780601f10611e1157610100808354040283529160200191611e3a565b820191905f5260205f20905b815481529060010190602001808311611e1d57829003601f168201915b505050505081526020016002820154815260200160038201548152505090806005016040518060e00160405290815f8201548152602001600182015481526020016002820154815260200160038201548152602001600482018054611e9e906125ff565b80601f0160208091040260200160405190810160405280929190818152602001828054611eca906125ff565b8015611f155780601f10611eec57610100808354040283529160200191611f15565b820191905f5260205f20905b815481529060010190602001808311611ef857829003601f168201915b50505050508152602001600582018054611f2e906125ff565b80601f0160208091040260200160405190810160405280929190818152602001828054611f5a906125ff565b8015611fa55780601f10611f7c57610100808354040283529160200191611fa5565b820191905f5260205f20905b815481529060010190602001808311611f8857829003601f168201915b5050509183525050600682015460209091019060ff166005811115611fcc57611fcc61216c565b6005811115611fdd57611fdd61216c565b905250905083565b60096020525f90815260409020805460018201546002830180546001600160a01b0390931693919261095d906125ff565b60405180606001604052805f8152602001612050604051806080016040528060608152602001606081526020015f81526020015f81525090565b815260200161205d612062565b905290565b6040518060e001604052805f81526020015f81526020015f81526020015f815260200160608152602001606081526020015f600581111561205d5761205d61216c565b5f80604083850312156120b6575f80fd5b50508035926020909101359150565b5f602082840312156120d5575f80fd5b5035919050565b5f81518084525f5b81811015612100576020818501810151868301820152016120e4565b505f602082860101526020601f19601f83011685010191505092915050565b602081525f61213160208301846120dc565b9392505050565b80356001600160a01b038116811461214e575f80fd5b919050565b5f60208284031215612163575f80fd5b61213182612138565b634e487b7160e01b5f52602160045260245ffd5b6006811061219c57634e487b7160e01b5f52602160045260245ffd5b50565b602081016121ac83612180565b91905290565b634e487b7160e01b5f52604160045260245ffd5b5f82601f8301126121d5575f80fd5b813567ffffffffffffffff808211156121f0576121f06121b2565b604051601f8301601f19908116603f01168101908282118183101715612218576122186121b2565b81604052838152866020858801011115612230575f80fd5b836020870160208301375f602085830101528094505050505092915050565b5f805f60608486031215612261575f80fd5b61226a84612138565b9250602084013567ffffffffffffffff80821115612286575f80fd5b612292878388016121c6565b935060408601359150808211156122a7575f80fd5b506122b4868287016121c6565b9150509250925092565b60018060a01b0385168152836020820152608060408201525f6122e460808301856120dc565b82810360608401526122f681856120dc565b979650505050505050565b5f81516080845261231560808501826120dc565b90506020830151848203602086015261232e82826120dc565b91505060408301516040850152606083015160608501528091505092915050565b805182526020810151602083015260408101516040830152606081015160608301525f608082015160e0608085015261238b60e08501826120dc565b905060a083015184820360a08601526123a482826120dc565b91505060c08301516123b581612180565b8060c0860152508091505092915050565b60208152815160208201525f6020830151606060408401526123eb6080840182612301565b90506040840151601f19848303016060850152612408828261234f565b95945050505050565b80356006811061214e575f80fd5b5f6020828403121561242f575f80fd5b61213182612411565b5f805f805f60a0868803121561244c575f80fd5b853567ffffffffffffffff80821115612463575f80fd5b61246f89838a016121c6565b96506020880135915080821115612484575f80fd5b50612491888289016121c6565b959895975050505060408401359360608101359360809091013592509050565b5f80604083850312156124c2575f80fd5b6124cb83612138565b91506124d960208401612411565b90509250929050565b5f80604083850312156124f3575f80fd5b82359150602083013567ffffffffffffffff811115612510575f80fd5b61251c858286016121c6565b9150509250929050565b838152606060208201525f61253e6060830185612301565b8281036040840152612550818561234f565b9695505050505050565b60208082526026908201527f4f6e6c792072657461696c6572732063616e20706572666f726d20746869732060408201526530b1ba34b7b760d11b606082015260800190565b60208082526022908201527f4d65646963696e65206e6f7420696e20446973747269627574696f6e20737461604082015261676560f01b606082015260800190565b828152604081016125f283612180565b8260208301529392505050565b600181811c9082168061261357607f821691505b60208210810361263157634e487b7160e01b5f52602260045260245ffd5b50919050565b6020808252602a908201527f4f6e6c79206d616e756661637475726572732063616e20706572666f726d20746040820152693434b99030b1ba34b7b760b11b606082015260800190565b61268a82612180565b908152604060208201819052601d908201527f4d616e75666163747572657220416374696f6e20506572666f726d6564000000606082015260800190565b60208082526022908201527f4f6e6c792061646d696e2063616e20706572666f726d2074686973206163746960408201526137b760f11b606082015260800190565b5f6001820161272757634e487b7160e01b5f52601160045260245ffd5b5060010190565b601f821115612773575f81815260208120601f850160051c810160208610156127545750805b601f850160051c820191505b8181101561092457828155600101612760565b505050565b815167ffffffffffffffff811115612792576127926121b2565b6127a6816127a084546125ff565b8461272e565b602080601f8311600181146127d9575f84156127c25750858301515b5f19600386901b1c1916600185901b178555610924565b5f85815260208120601f198616915b82811015612807578886015182559484019460019091019084016127e8565b508582101561282457878501515f19600388901b60f8161c191681555b5050505050600190811b01905550565b60208082526029908201527f4f6e6c79206469737472696275746f72732063616e20706572666f726d20746860408201526834b99030b1ba34b7b760b91b606082015260800190565b61288682612180565b908152604060208201819052601c908201527f4469737472696275746f7220416374696f6e20506572666f726d656400000000606082015260800190565b60208082526026908201527f4f6e6c7920737570706c696572732063616e20706572666f726d20746869732060408201526530b1ba34b7b760d11b606082015260800190565b838152606060208201525f61292260608301856120dc565b9050826040830152949350505050565b61293b83612180565b8281525f60206040818401525f8454612953816125ff565b806040870152606060018084165f8114612974576001811461298e576129b9565b60ff1985168984015283151560051b8901830195506129b9565b895f52865f205f5b858110156129b15781548b8201860152908301908801612996565b8a0184019650505b50939998505050505050505050565b828152604060208201525f6129e060408301846120dc565b949350505050565b6129f182612180565b9081526040602082018190526019908201527f52657461696c657220416374696f6e20506572666f726d656400000000000000606082015260800190565b612a3882612180565b9081526040602082018190526019908201527f537570706c69657220416374696f6e20506572666f726d656400000000000000606082015260800190565b612a7f82612180565b9081526040602082018190526019908201527f436f6e73756d657220416374696f6e20506572666f726d65640000000000000060608201526080019056fee2ef9981bce5c99d63f54c8662e6c70e3fcb523242df54b0fe2ad0793e2201a7a91f1eb8f7af79f3b113d175e735894235716f9dcc4e5eb4178b396713df3f5ca2646970667358221220738107d8e486d42385ebf2f3a94c774345f7d19b0b3704a08ac7ac2cb6375bf564736f6c63430008140033",
  "immutableReferences": {},
  "source": "// SPDX-License-Identifier: MIT\r\npragma solidity >=0.4.22 <0.9.0;\r\npragma experimental ABIEncoderV2; // Enable experimental ABI encoder\r\n\r\nimport \"./Roles.sol\";\r\n\r\ncontract SupplyChain is Roles {\r\n    address public Owner;\r\n\r\n    constructor() public {\r\n        Owner = msg.sender;\r\n    }\r\n\r\n    modifier onlyByOwner() {\r\n        require(msg.sender == Owner, \"Only owner can perform this action\");\r\n        _;\r\n    }\r\n\r\n    enum STAGE {\r\n        Init,\r\n        RawMaterialSupply,\r\n        Manufacture,\r\n        Distribution,\r\n        Retail,\r\n        Sold\r\n    }\r\n\r\n    struct RawMaterialSupplier {\r\n        address addr;\r\n        uint256 id;\r\n        string name;\r\n        string place;\r\n    }\r\n\r\n    struct Manufacturer {\r\n        address addr;\r\n        uint256 id;\r\n        string name;\r\n        string place;\r\n    }\r\n\r\n    struct Distributor {\r\n        address addr;\r\n        uint256 id;\r\n        string name;\r\n        string place;\r\n    }\r\n\r\n    struct Retailer {\r\n        address addr;\r\n        uint256 id;\r\n        string name;\r\n        string place;\r\n    }\r\n\r\n    struct MedicineDetails {\r\n        string name;\r\n        string description;\r\n        uint256 batchNumber;\r\n        uint256 expirationDate;\r\n    }\r\n\r\n    struct MedicineTracking {\r\n        uint256 RMSid;\r\n        uint256 MANid;\r\n        uint256 DISid;\r\n        uint256 RETid;\r\n        string qrCode; // QR code data\r\n        string storageConditions; // New field for storage conditions\r\n        STAGE stage;\r\n    }\r\n\r\n    struct Medicine {\r\n        uint256 id;\r\n        MedicineDetails details;\r\n        MedicineTracking tracking;\r\n    }\r\n\r\n    uint256 public rmsCtr = 0;\r\n    uint256 public manCtr = 0;\r\n    uint256 public disCtr = 0;\r\n    uint256 public retCtr = 0;\r\n    uint256 public medicineCtr = 0;\r\n\r\n    mapping(uint256 => RawMaterialSupplier) public RMS;\r\n    mapping(uint256 => Manufacturer) public MAN;\r\n    mapping(uint256 => Distributor) public DIS;\r\n    mapping(uint256 => Retailer) public RET;\r\n    mapping(uint256 => Medicine) public MedicineStock;\r\n\r\n    event MedicineAdded(uint256 id, string name, uint256 batchNumber);\r\n    event MedicineUpdated(uint256 id, STAGE stage);\r\n    event QRCodeGenerated(uint256 id, string qrCode);\r\n    event StorageConditionsUpdated(uint256 id, string conditions);\r\n\r\n    // Add raw material supplier\r\n    function addRMS(address _address, string memory _name, string memory _place) public onlyAdmin {\r\n        rmsCtr++;\r\n        RMS[rmsCtr] = RawMaterialSupplier(_address, rmsCtr, _name, _place);\r\n    }\r\n\r\n    // Add manufacturer\r\n    function addManufacturer(address _address, string memory _name, string memory _place) public onlyAdmin {\r\n        manCtr++;\r\n        MAN[manCtr] = Manufacturer(_address, manCtr, _name, _place);\r\n    }\r\n\r\n    // Add distributor\r\n    function addDistributor(address _address, string memory _name, string memory _place) public onlyAdmin {\r\n        disCtr++;\r\n        DIS[disCtr] = Distributor(_address, disCtr, _name, _place);\r\n    }\r\n\r\n    // Add retailer\r\n    function addRetailer(address _address, string memory _name, string memory _place) public onlyAdmin {\r\n        retCtr++;\r\n        RET[retCtr] = Retailer(_address, retCtr, _name, _place);\r\n    }\r\n\r\n    // Add a function to retrieve medicine details\r\n    function getMedicineDetails(uint256 _id) public view returns (Medicine memory) {\r\n        require(MedicineStock[_id].id != 0, \"Medicine does not exist\");\r\n        return MedicineStock[_id];\r\n    }\r\n\r\n    // Add medicine\r\n    function addMedicine(\r\n        string memory _name,\r\n        string memory _description,\r\n        uint256 _batchNumber,\r\n        uint256 _expirationDate,\r\n        uint256 _RMSid\r\n    ) public onlySupplier {\r\n        require(RMS[_RMSid].addr != address(0), \"Invalid raw material supplier ID\");\r\n\r\n        medicineCtr++;\r\n        MedicineStock[medicineCtr] = Medicine(\r\n            medicineCtr,\r\n            MedicineDetails(_name, _description, _batchNumber, _expirationDate),\r\n            MedicineTracking(_RMSid, 0, 0, 0, \"\", \"\", STAGE.RawMaterialSupply) // Set initial stage to RawMaterialSupply\r\n        );\r\n        emit MedicineAdded(medicineCtr, _name, _batchNumber);\r\n    }\r\n\r\n    // Update manufacturing details\r\n    function updateManufacturingDetails(uint256 _id, uint256 _MANid) public onlyManufacturer {\r\n        require(MedicineStock[_id].tracking.stage == STAGE.RawMaterialSupply, \"Medicine not in RawMaterialSupply stage\");\r\n        require(MAN[_MANid].addr != address(0), \"Invalid manufacturer ID\");\r\n\r\n        MedicineStock[_id].tracking.MANid = _MANid;\r\n        MedicineStock[_id].tracking.stage = STAGE.Manufacture;\r\n        emit MedicineUpdated(_id, STAGE.Manufacture);\r\n    }\r\n\r\n    // Update distribution details\r\n    function updateDistributionDetails(uint256 _id, uint256 _DISid) public onlyDistributor {\r\n        require(MedicineStock[_id].tracking.stage == STAGE.Manufacture, \"Medicine not in Manufacture stage\");\r\n        require(DIS[_DISid].addr != address(0), \"Invalid distributor ID\");\r\n\r\n        MedicineStock[_id].tracking.DISid = _DISid;\r\n        MedicineStock[_id].tracking.stage = STAGE.Distribution;\r\n        emit MedicineUpdated(_id, STAGE.Distribution);\r\n    }\r\n\r\n    // Update retail details\r\n    function updateRetailDetails(uint256 _id, uint256 _RETid) public onlyRetailer {\r\n        require(MedicineStock[_id].tracking.stage == STAGE.Distribution, \"Medicine not in Distribution stage\");\r\n        require(RET[_RETid].addr != address(0), \"Invalid retailer ID\");\r\n\r\n        MedicineStock[_id].tracking.RETid = _RETid;\r\n        MedicineStock[_id].tracking.stage = STAGE.Retail;\r\n        emit MedicineUpdated(_id, STAGE.Retail);\r\n    }\r\n\r\n    // Mark medicine as sold\r\n    function markAsSold(uint256 _id) public onlyRetailer {\r\n        require(MedicineStock[_id].tracking.stage == STAGE.Retail, \"Medicine not in Retail stage\");\r\n\r\n        MedicineStock[_id].tracking.stage = STAGE.Sold;\r\n        emit MedicineUpdated(_id, STAGE.Sold);\r\n    }\r\n\r\n    // Update storage conditions\r\n    function updateStorageConditions(uint256 _id, string memory _conditions) public onlyDistributor {\r\n        require(MedicineStock[_id].tracking.stage == STAGE.Distribution, \"Medicine not in Distribution stage\");\r\n\r\n        MedicineStock[_id].tracking.storageConditions = _conditions;\r\n        emit StorageConditionsUpdated(_id, _conditions);\r\n    }\r\n\r\n    // Generate QR code (placeholder for integration)\r\n    function generateQRCode(uint256 _id, string memory _qrCode) public onlyAdmin {\r\n        MedicineStock[_id].tracking.qrCode = _qrCode;\r\n        emit QRCodeGenerated(_id, _qrCode);\r\n    }\r\n}",
  "sourcePath": "C:\\Users\\Sharma\\Desktop\\New folder\\Coffee Supply Chain\\New Supply Chain Blockchain\\contracts\\SupplyChain.sol",
  "compiler": {
    "name": "solc",
    "version": "0.8.20+commit.a1b79de6.Emscripten.clang"
  },
  "schemaVersion": "3.4.16",
  "updatedAt": "2025-03-29T13:19:59.450Z",
  "devdoc": {
    "kind": "dev",
    "methods": {},
    "version": 1
  },
  "userdoc": {
    "kind": "user",
    "methods": {},
    "version": 1
  }
}